S012000050726F746F74797065312E737265630B
S11300000C9423010C9454010C9454010C94540149
S11300100C9454010C9454010C9454010C94540108
S11300200C9454010C9454010C9454010C945401F8
S11300300C9454010C9454010C9454010C945401E8
S11300400C9454010C9454010C9454010C945401D8
S11300500C9454010C9454010C9454010C945401C8
S11300600C9454010C9454010C9454010C945401B8
S11300700C9454010C9454010C9454010C945401A8
S11300800C9454010C9454010C9454010C94540198
S11300900C9454010C9454010C9454010C94321992
S11300A00C9464190C9496190C94C8190C9454016A
S11300B00C9454010C9454010C9454010C94540168
S11300C00C9454010C9454010C9454010C94540158
S11300D00C9454010C9454010C9454010C94540148
S11300E00C9454010C9454010C9454010C94540138
S11300F00C9454010C9454010C9454010C94540128
S11301000C9454010C9454010C9454010C94540117
S11301100C9454010C9454010C9454010C946A18DA
S11301200C949C180C94CE180C9400190C94540143
S11301300C9454010C94151F0C9454010C94540108
S11301400C9454010C9454010C9454010C945401D7
S11301500C9454010C9454010C9454010C945401C7
S11301600C9454010C9454010C9454010C945401B7
S11301700C9454010C9454010C9454010C945401A7
S11301800C9454010C9454010C9454010C94540197
S11301900C9454010C9454010C9454010C94540187
S11301A00C9454010C9454010C9454010C94540177
S11301B00C9454010C9454010C9454010C94540167
S11301C00C9454010C9454010C9454010C94540157
S11301D00C9454010C9454010C9454010C94540147
S11301E00C9454010C9454010C9454010C94540137
S11301F00C9454010C94EF0C0C94AB0D0C949803D8
S11302000C94BE040C94B1020C94BF020C948002B2
S11302100C9479120C947F0F0C94C8100C94AB02BC
S11302200C9410040C94C0020C94BB020C94BD02F8
S11302300C9496030C945D0F0C946C0F0C94201F7B
S11302400C944604201F11241FBECFEFCDBFDFE561
S1130250DEBF00E00CBF10E2A0E0B0E2E4EAF1E4AB
S113026000E00BBF02C007900D92A23FB107D9F77F
S113027024E2A2EFB0E201C01D92AA31B207E1F775
S113028011E0C3E2D1E000E006C021970109802F0C
S1130290FE010E949E1FC232D10780E00807A9F721
S11302A00E94E11E0C94D0200C9400000895FB01E0
S11302B08081089581E0FB0190819A3008F080E00C
S11302C00895CF93DF93EC010E9474048823E1F333
S11302D00E94BB048883DF91CF910895CF93DF936D
S11302E0EC010E9474048823E1F30E94BB04898317
S11302F00E9474048823E1F30E94BB048883DF9185
S1130300CF9108950F931F93CF93DF93EC01088748
S113031019872E833F836A837B834C835D8384E0C8
S113032090E00E94E31088839983DF91CF911F911D
S11303300F9108950F931F93CF93DF93EC0181E006
S113034090E00E94E3108C010E946101F801208179
S1130350622F70E02170AB0184E0559547958A9532
S1130360E1F7477075956795677088859985DF9182
S1130370CF911F910F910C94D213CF92DF92EF92F1
S1130380FF920F931F93CF93DF937C0188E090E05B
S11303900E94E310EC0117E00E9474048823E1F347
S11303A06E01C10ED11C0E94BB04F6018083115062
S11303B098F7088119812A813B814C815D816E8186
S11303C07F81F701808591850E947B13DF91CF9116
S11303D01F910F91FF90EF90DF90CF9008950F93AE
S11303E01F93CF93DF938C0182E090E00E94E3108F
S11303F0EC010E946E01F801868197810E94A91781
S113040068817981DF91CF911F910F910C94AD1781
S11304100F931F93CF93DF938C0182E090E00E94AF
S1130420E310EC010E946E01F801868197810E941D
S1130430A91768817981DF91CF911F910F910C9455
S1130440C217CF93DF93EC018E819F810E94A61780
S1130450823089F038F48130C1F4CE01DF91CF913C
S11304600C949A01833061F0843079F4CE01DF91E9
S1130470CF910C940802CE01DF91CF910C94BD0171
S1130480CE01DF91CF910C94EF01DF91CF910895CC
S11304900F931F93CF93DF93EC0100E010E0C801AA
S11304A00E946101B8018C819D810E945A018823B8
S11304B089F0B8018C819D810E945701682F8E813B
S11304C09F810E94A217CE01DF91CF911F910F91BE
S11304D00C942102DF91CF911F910F910895FC019B
S11304E0608371830895CF93DF931F92CDB7DEB7F6
S11304F08FB78983F89489810F90DF91CF91089504
S1130500109208221092142210921522EAE0F2E2CC
S113051081EA808380E281831282138214821582AD
S113052082E090E08683978310861186E6E1F2E20A
S113053080E092ECA1E0B0E080839183A283B38356
S11305401482158288E08683809108228F5F8093CD
S1130550082281E008958091082281508093082226
S11305600895809107228150809307228091072269
S113057010920622089580E0089580E00895089579
S11305809091FC23892F807697FF0EC0803271F5FD
S11305908091FD23813251F58091022490910324AE
S11305A08730910519F516C0803201F58091FD233D
S11305B0803219F08232C1F019C0809102249091E6
S11305C003248730910591F42FEB32E02093082423
S11305D03093092426E132E2209304243093052445
S11305E0809306249093072481E0089580E0089581
S11305F0FF920F931F93CF93DF938091F520811186
S11306008FC00E94900BC091F620D091F7208823D0
S1130610B1F00E949D0BC817D90709F481C00E944C
S11306207302D82FC091F820EC2FF0E0EE0FFF1FDB
S1130630E750FF4D80819181892B29F503C00E94E9
S1130640980BE9CF8091F2209091F320019680934A
S1130650F2209093F3200E94900B811109C08091A5
S1130660F2209091F3208436910510F4DFBF58C036
S11306700E94900B882339F08091F2209091F3200E
S11306808032934098F31092F2201092F3208091DC
S1130690F420811106C081E0C11180E08093F8202C
S11306A004C081E0C11180E0C82F81E08093F5206F
S11306B0DFBFD0E08E01000F111FF801E750FF4D9E
S11306C080819181FF24F3948034910509F4F12C05
S11306D08034910571F00E94900B882319F00E94D8
S11306E09D0B02C00E94980B8093F6209093F720F4
S11306F004C01092F6201092F720F801E750FF4D45
S113070020813181AE0186E0440F551F8A95E1F7BF
S113071042505F4D08E913E06F2D81E80E94220CDE
S1130720DF91CF911F910F91FF9008950C94F802DF
S1130730811115C02091F82081E090E0222311F06E
S113074080E090E0880F991FFC01E750FF4D108274
S113075011821092F4201092F5200C94F80208955E
S11307600E94730220917F2130918021E0918121A8
S1130770F0E0EE0FFF1FEE57FE4D408151818FBF19
S1130780CA01821B930B08950E94B00321E0892BB8
S113079009F420E0822F08950F931F93CF93DF93E2
S11307A00E9473022091812190917E21911110C0A9
S11307B060917F2170918021C22FD0E0FE01EE0F65
S11307C0FF1FEE57FE4D408151816417750718F4E1
S11307D08FBF80E020C010927F211092802191E091
S11307E0211190E09093812191E090937E218FBF1D
S11307F080E00E94C403AE0186E0440F551F8A9531
S1130800E1F74A575E4D06E414E020E430E061E08D
S113081082E00E94220CDF91CF911F910F910895E5
S1130820109207221092F5201092F4201092F820D2
S11308301092F9201092FA201092FB201092FC20C2
S11308401092F6201092F7200E94F80210927E2156
S1130850109281211092822110928321109284217E
S11308601092852110927F21109280210E94CC0346
S1130870882359F0909107229F5F909307229091CB
S11308800722913011F49093062208950F931F9339
S1130890811127C08091812121E0811120E030E085
S11308A06115710589F4842F96E0220F331F9A9500
S11308B0E1F7A9014A575E4D06E414E020E430E074
S11308C061E00E94220C0DC0220F331FF901EE5784
S11308D0FE4D6083718310927E211F910F910C94C1
S11308E0CC031F910F91089580E00C94C4031F93CF
S11308F0CF93DF9311E080911C22893009F010E03E
S1130900C0E0D0E00E94730240917F215091802189
S11309102091812130E0F901EE0FFF1FEE57FE4DCB
S1130920608171818FBF4617570730F0809106228E
S11309308111E8CF90E01BC0F90196E0EE0FFF1F94
S11309409A95E1F7EA57FE4DE40FF51F8081C82B15
S11309504F5F5F4F40937F21509380210E94CC03CF
S1130960112321F0DC2FCC2710E0CCCFCE01DF9176
S1130970CF911F91089580E00C9477048091FE2319
S11309808F770C94920B90912422911102C080E0F5
S11309900895E0912222F09123220190F081E02D2C
S11309A094818917A0F7E0932022F09321222281D9
S11309B033812E0F3F1FE217F30798F4918194308F
S11309C061F49281891309C09381691306C0E0938D
S11309D02022F093212281E008959081E90FF11DF6
S11309E0EACFE0932022F0932122D1CFE09122227A
S11309F0F09123220190F081E02D228133812E0F8A
S1130A003F1FFC014081E40FF11DE217F30748F496
S1130A108181843031F0853039F08081E80FF11D17
S1130A20F4CF80E090E00895CF0108951F93CF9311
S1130A30DF93182F0E94C304882349F1C091202218
S1130A40D0912122CE010E94F604EC01892B49F0B9
S1130A504C815D816B818A810E94A70B8111F2CF49
S1130A6016C0E0912222F091232292818381E92F02
S1130A70F82FE10FF11DE10FF11D0190F081E02D40
S1130A800190F081E02DDF91CF911F91199480E0C6
S1130A90DF91CF911F910895EF92FF921F93CF930F
S1130AA0DF93C82F60E00E94C304811102C010E0EC
S1130AB02FC0E0912222F091232292818381E92F99
S1130AC0F82FEC0FF11DEC0FF11DE080F180D70140
S1130AD01696ED91FC9117971995682F8C2F0E940B
S1130AE0C304182F882319F3C0912022D091212206
S1130AF0CE010E94F604EC01892B21F08A810E9428
S1130B00D60CF6CFD7011296ED91FC911397199557
S1130B10812FDF91CF911F91FF90EF9008950C9456
S1130B201F0BCF9380912422882311F0C0E00AC0C8
S1130B301092242281E090E080932822909329222D
S1130B40CF910895E0912222F09123220190F08127
S1130B50E02D8481C81760F78C2F0E944C05CF5F6D
S1130B60F1CFCF93809124228823F1F0C0E0E0916B
S1130B702222F0912322A081B18114968C91C8176E
S1130B8098F492818381E92FF82FEC0FF11DEC0F7B
S1130B90F11D0190F081E02D0084F185E02D309766
S1130BA009F01995CF5FE3CFCF9108950F931F9369
S1130BB0CF93DF93109206241092072410920824F6
S1130BC01092092410920A2410920B248091FC2381
S1130BD087FF07C02091022430910324232B09F4BA
S1130BE051C2982F907609F0D7C187FF01C1209197
S1130BF00224309103242115310509F4CDC18F71EC
S1130C0009F0A2C08091FD23863071F0883009F488
S1130C1090C08111C1C12230310509F0BDC162E02B
S1130C2070E088E292E28DC08091FE239091FF23D0
S1130C30292F332722303105A1F060F4213031050A
S1130C4009F0AAC18091682090916920DC016C911F
S1130C5070E05CC02330310591F12F30310511F182
S1130C609BC1E0916820F09169202189821708F0E6
S1130C7093C19927880F991F880F991FE0916A20C3
S1130C80F0916B20E80FF91F80819181FC01628152
S1130C9073810E94A00BE0910424F091052482E06A
S1130CA0818336C080916C2090916D20009709F467
S1130CB073C1DC0112966D917C91139727C099271B
S1130CC08130910569F038F0029709F065C16AE056
S1130CD084E490E208C064E070E084E690E216C028
S1130CE064E18FE490E2282FACE1B0E2FC01819151
S1130CF090E08D939D938E2F821B8617C0F3660F11
S1130D006E5F60931A2070E08AE190E20E94A00B6B
S1130D108091022490910324209106243091072489
S1130D208217930708F078C18093062490930724D0
S1130D3073C12130310509F02FC161E070E084E214
S1130D4092E20E94A00B68C18130C9F58091FD2315
S1130D508A3009F021C12130310509F01DC180918B
S1130D602422882309F418C1C0910024D0910124BD
S1130D700091222210912322D801ED91FC918481CB
S1130D80C81708F009C160E08C2F0E94C3048823AF
S1130D9009F402C1DD27CC0FDD1FF80182819381A4
S1130DA0C80FD91FE881F9810680F781E02D1995D4
S1130DB08093262261E070E086E292E2C2CF823024
S1130DC009F0EAC08091FD238111E6C0223031058B
S1130DD009F0E2C0809100240E94FB0B90E0809314
S1130DE01E2290931F2262E070E08EE192E2A9CF6E
S1130DF08F7109F080C08091FD23833009F4CCC049
S1130E0018F48130A1F0C8C0853019F0893039F167
S1130E10C3C08091022490910324892B09F0BCC0A3
S1130E208EEB94E08093082490930924F5C080917C
S1130E30022490910324892B09F0AEC08091FE23F3
S1130E409091FF23019709F0A7C0809128229091E7
S1130E5029228D7F8093282290932922DDC08091BE
S1130E60022490910324892B09F096C00E94950BCB
S1130E70882309F491C02091FE233091FF23332766
S1130E80E0916820F0916920818990E082179307AE
S1130E9008F482C00E9491058091FE239091FF2363
S1130EA080932422882309F4B7C099278150904C59
S1130EB0880F991F880F991F20916A2030916B2009
S1130EC0820F931F8093222290932322C0E0E0910B
S1130ED02222F09123220190F081E02D8481C81711
S1130EE008F09AC060E08C2F0E941605882309F44C
S1130EF053C0CF5FECCF8130F9F48091FD238B3068
S1130F0009F04AC08091022490910324892B09F0AE
S1130F1043C080912422882309F43EC0C091002458
S1130F20D091FE238C2F0E944C058823A9F16D2FAC
S1130F308C2F0E9416052EC0823071F58091FD23FE
S1130F40813019F0833091F027C080910224909170
S1130F500324892B09F58091FE239091FF23892B8B
S1130F60D9F4809100240E94030C14C080910224BF
S1130F7090910324892B81F48091FE239091FF2387
S1130F80892B51F4809100240E94A40C80910024A8
S1130F900E94E10C811140C08091FC238F7181304B
S1130FA0E9F580912422882309F46CC0C0910024BF
S1130FB0D09101240091222210912322D801ED9195
S1130FC0FC918481C81708F05DC060E08C2F0E94FA
S1130FD0C304882319F1FE01FF27EE0FFF1FD80178
S1130FE012968D919C911397E80FF91F008111813E
S1130FF0D8011696ED91FC9117971995682F8C2FAF
S11310000E94C304882351F0D8011496ED91FC91F9
S113101015971995882311F081E035C08091FC2340
S11310208F71823079F580912422882359F1C0E0B0
S1131030E0912222F0912322A081B18114968C9117
S1131040C81700F592818381E92FF82FEC0FF11D69
S1131050EC0FF11D00811181D8011696ED91FC91E0
S113106017971995682F8C2F0E94C304882351F079
S1131070D8011496ED91FC91159719958111CCCF57
S1131080CF5FD6CF80E0DF91CF911F910F9108956C
S1131090CF93DF931F92CDB7DEB78FB78983F894D0
S11310A089810F90DF91CF910895CF93DF93C82F5B
S11310B0D0E0C05FDB4D88818F3F09F4FFCF0E94F1
S11310C0480898819F5F98838FBFDF91CF910895DF
S11310D0CF93DF93C82FD0E0C05FDB4D88818111AF
S11310E001C0FFCF0E9448089881915098838FBF18
S11310F0DF91CF910895CF93C82F80915423C111CC
S113110006C0882349F081E00E94680805C0811167
S113111003C081E00E945508C0935423CF910895E1
S1131120282F2F70082E000C990B392F331F3327CB
S1131130331F832F90E0820F911D820F911D23E0B6
S1131140880F991F2A95E1F7805E9C4D08950F93AF
S1131150E8ECF4E080818F7D808380818F7D8083C3
S1131160E8E2F3E202E0059310922A2310922B2383
S113117000E2069300E40693E0E2F3E200E406935F
S1131180ECEFF3E21486158616861786128613860C
S1131190109213230F9108950F9385E080931323E6
S11311A0E9E2F3E204E00593E1E2F3E204E005930B
S11311B00F9108950F9383E08093132310922A23B1
S11311C010922B23E8E2F3E202E006930F910895D4
S11311D0E0910824F0910924309709F019940895B6
S11311E0282F2F70082E000C990B392F331F33270B
S11311F0331F832F90E0820F911D820F911D029760
S113120049E0489F9001499F300D1124C90185553B
S11312109D4D0895AF92BF92DF92EF92FF920F938C
S11312201F93CF93DF93D82E0E94F008EC018D2DED
S11312300E9490087C01DC011196EC91E770E1506A
S1131240E73040F4F0E0EE0FFF1FEE52FF4D008157
S1131250118102C008E010E02D813E818B819C81C8
S11312604881D7FE4CC0F70166817781260F371F6E
S11312702D833E8328173907B1F1BC01621B730B20
S11312809B01211574E0370740F02FEF33E0C901CB
S1131290B8010E943B1F281B390B41FF0BC0C90139
S11312A0B8010E943B1FAC0191E0452B09F090E08E
S11312B0892F01C080E0988180FB91F99883D70140
S11312C016961D921C92179712962D933C93139782
S11312D029813A818D819E81820F931F14968D936B
S11312E09C93159708C041FF7CC04D7F48831682AC
S11312F0178212821382F70102E0069389C0D70194
S11313001296AD90BC90139742FF11C0E981FA8107
S1131310B8010E943B1FB0E4DB9EB001112465516B
S11313207E4DAC01CF01820F931F0E94C7202D81F7
S11313303E812A0D3B1D2D833E838B819C81821728
S1131340930710F48D839E83F70126813781A216BB
S1131350B30609F046C02D813E818217930709F434
S113136040C0AC01421B530B9A01211554E03507D0
S113137058F02FEF33E0C901B8010E943B1FB901B7
S1131380681B790BCB0108C0C901B8010E943B1F3F
S1131390D901A81BB90BCD01F70112821382801762
S11313A0910798F4888184608883F0E4DF9EC0010B
S11313B0112485519E4DD70114968D939C931597B6
S11313C016960D931C93179796CF49815A812D81B8
S11313D03E81240F351FF701248335838683978349
S11313E08ACF888180FF14C08E7F8883EF81F8853F
S11313F0309771F06D817E814D2D80E0DF91CF912A
S11314001F910F91FF90EF90DF90BF90AF901994D0
S1131410DF91CF911F910F91FF90EF90DF90BF90DC
S1131420AF9008950F93CF93DF938091132383306C
S113143039F40E94E808DF91CF910F910C94A7082A
S113144020910F2330911023C0910624D0910724BA
S1131450C21BD30B61F58091112390911223820F4B
S1131460931F80931123909312232091022430918F
S113147003248217930721F080912A22882331F0D4
S113148084E080931323E0E2F3E236C0E0910A247F
S1131490F0910B24309799F01995882381F01092DC
S11314A00F2310921023C0910624D0910724C03436
S11314B0D10528F010922A22C0E4D0E003C081E0D4
S11314C080932A22C0932A23D0932B2380910F2325
S11314D0909110232091042430910524280F391F62
S11314E020932C2330932D23C80FD91FC0930F238F
S11314F0D0931023E8E2F3E202E00693DF91CF9168
S11315000F9108950F93CF938091CC0480FF6BC00B
S113151021E02093CC0480E293E2FC0100E80693EE
S1131520E8E2F3E200E806932093CA04FC0100E138
S1131530069380911323882339F08350823010F46A
S11315400E94E8080E94A7088091222390912323F7
S1131550089709F04AC088E0EFECF2E2ACEFB3E29E
S113156001900D928A95E1F78091C804806280937E
S1131570C8048091C80480628093C8040E94D60580
S1131580C82F811103C00E94CC082FC08091FC2376
S113159087FF0EC0109211231092122310920F2372
S11315A01092102382E0809313230E94120A1EC01B
S11315B08091022490910324892B19F40E94DA0863
S11315C015C0109211231092122310920F2310921F
S11315D0102381E080931323E0E2F3E202E0069318
S11315E000E2069303C0C0E001C0C1E08C2FCF919C
S11315F00F910895CF930E944808C82F81E00E945C
S11316007B08EAECF4E080E4808380E28083E1EC10
S1131610F4E0808181608083A9ECB4E08C918260E5
S11316208C93E8ECF4E08081806480838C91816009
S11316308C93808180688083CFBFCF910895CF93AE
S11316401092600080E30E948F1B8091C00480642C
S11316508093C00481E0809360000E944808C82FF2
S113166010922123109229231092312310923923AE
S113167010924123109249238091AB228E7F809354
S1131680AB228091B4228E7F8093B4228091BD22BC
S11316908E7F8093BD228091C6228E7F8093C62246
S11316A06AE170E082E00E94041C8F3F09F48FE13C
S11316B08093FA046BE170E082E00E94041C8F3F87
S11316C009F48FE18093FB048091C00482608093CD
S11316D0C0048091C00480688093C0048091C004D9
S11316E080618093C00480E293E28093C604909367
S11316F0C7048091C00480628093C0048FEF8093FC
S1131700C5048091C80481608093C8041092542356
S113171085E00E9455080E94FA0ACFBFCF91089530
S113172080E008958093C30408958091C3040895CC
S11317308091502390915123089580E090E0089582
S1131740ECEFF3E2808791876287738708951F9394
S1131750CF93DF93162FEA010E949008FC01818148
S1131760807C09F041C0612F6370613019F020F072
S113177080E803C080EC01C080E4C038D105E1F00A
S113178050F4C032D105A1F0C034D10599F060976E
S1131790C9F491E018C0C11592E0D90779F0CF3FA0
S11317A093E0D90769F0C115D14061F495E00BC00D
S11317B092E009C093E007C094E005C096E003C03E
S11317C097E001C090E0118226E02083982B91835A
S11317D08181807C803C21F481818770873031F065
S11317E081818062818302C080E001C081E0DF9159
S11317F0CF911F9108950E949008FC01818182FB82
S1131800882780F908950F93CF93C82F0E949008DA
S1131810FC0101E00693818182FF10C081818B7FEE
S113182081838C2F0E94F008FC01908190FF06C0F8
S11318309E7F90830780F085E02D199581E0CF91FC
S11318400F9108958F929F92AF92BF92CF92DF92A1
S1131850EF92FF920F931F93CF93DF93B82EA62E90
S11318604A0179010E94F008EC018B2D0E94900836
S11318706C01DC0111968C911197807C09F456C09F
S113188011968C911197807C803C21F011968C915B
S113189082FD4CC00E944808988190FF02C08FBF0F
S11318A045C0916098838FBF89829A82EB82FC82C3
S11318B01D821E820F83188791E0A11004C0E114D9
S11318C0F10409F090E0888190FB81F98B7F888393
S11318D0B7FE02C0F60123C0D60111968C91119770
S11318E0807C803CC9F41196EC91E770E150E730BC
S11318F040F4F0E0EE0FFF1FEE52FF4D6081718166
S113190002C068E070E0C7010E943B1F892B21F0F0
S113191088818E7F88830AC0F60112821382168220
S113192017828B2D0E940A0981E001C080E0DF91BB
S1131930CF911F910F91FF90EF90DF90CF90BF90C8
S1131940AF909F908F900895EF92FF920F93CF9353
S1131950C82F0E9490087C018C2F0E94F008DC01A3
S1131960F70102E005939C9190FF1BC09E7F9C931E
S11319701796ED91FC911897309799F0D701C7FF0E
S113198005C016966D917C91179704C012966D91BF
S11319907C9113974C2F81E0CF910F91FF90EF90A2
S11319A01994CF910F91FF90EF900895CF93C82F82
S11319B00E94A40C8C2F0E949008FC011182CF91EC
S11319C00895CF93C82F0E949008FC0191819460E0
S11319D091838C2F0E94A40C81E0CF9108951F92D3
S11319E00F920FB60F9211240BB60F920F932F93F1
S11319F03F934F935F936F937F938F939F93AF9393
S1131A00BF93EF93FF938091CB0487FF06C080E8D8
S1131A108093CA040E94B1058AC08091CB0482FFDE
S1131A201AC084E08093CA048091282386FF7FC073
S1131A308091CC0481FD7BC00E94820A811177C011
S1131A4080911323813019F40E94DA0870C0843025
S1131A5009F06DC022C08091CB0481FF27C082E0D1
S1131A608093CA048091202386FF61C08091CC04B6
S1131A7081FD5DC00E94820A811159C080911323A7
S1131A80823041F484E080931323E0E2F3E202E045
S1131A9006934DC0833009F04AC0E9E2F3E204E062
S1131AA00593E1E2F3E204E0059341C08091CB04A5
S1131AB084FF2AC080E18093CA0481E00E94A40CC0
S1131AC081E80E94A40C82E00E94A40C82E80E9497
S1131AD0A40C0E9491051092C3041092212396E055
S1131AE09093202383E480932123109229239093BD
S1131AF02823809329238FEC92E2809324239093CC
S1131B0025230E94A70813C08091CB0486FF05C03B
S1131B1080E48093CA0480E008C08091CB0485FFF0
S1131B2006C080E28093CA0481E00E947B08FF9192
S1131B30EF91BF91AF919F918F917F916F915F9141
S1131B404F913F912F910F910F900BBE0F900FBEAD
S1131B500F901F9018951F920F920FB60F92112499
S1131B600BB60F920F931F932F933F934F935F9353
S1131B706F937F938F939F93AF93BF93CF93DF9391
S1131B80EF93FF938091CC0481FF1AC082E080938D
S1131B90CC048091C5048195880FE0E2F3E2E81B50
S1131BA0F109208131812052334283E03695279513
S1131BB08A95E1F7822F869520FD07C0C0E006C014
S1131BC00E94820A882311F390C0C0E8C80F8C2FAA
S1131BD00E949008FC01208125FF87C000E2069343
S1131BE0C1117BC080911323843029F40E94E8083A
S1131BF00E94A7087AC00091222310912323809188
S1131C00062490910724C0910F23D09110239801AA
S1131C102C0F3D1F8217930718F48C010C1B1D0B0E
S1131C208091042490910524A8016FEC72E28C0F3A
S1131C309D1F0E94C720C00FD11FC0930F23D093B4
S1131C4010230034110569F480911123909112231B
S1131C508C0F9D1F20910224309103248217930737
S1131C6098F0C0930624D0930724E0910A24F091BD
S1131C700B24309731F01995811103C00E94CC08D0
S1131C8034C00E94DA0831C0809106249091072460
S1131C90C817D907D9F4E0910A24F0910B2430979E
S1131CA069F31995882351F320911123309112235C
S1131CB080910F2390911023820F931F80931123FF
S1131CC09093122310920F2310921023E0E2F3E278
S1131CD002E0069300E2069308C0C03819F40E949B
S1131CE0120A03C08C2F0E940A09FF91EF91DF9121
S1131CF0CF91BF91AF919F918F917F916F915F91A0
S1131D004F913F912F911F910F910F900BBE0F9008
S1131D100FBE0F901F901895FC01942F41E050E0E6
S1131D20062E01C0440F0A94EAF740952381242328
S1131D30492F01C0440F6A95EAF7422B4383089563
S1131D40FC01942F41E050E0062E01C0440F0A9498
S1131D50EAF7409525812423492F01C0440F6A9551
S1131D60EAF7422B45830895EF92FF920F931F9356
S1131D70CF93DF9300D01F92CDB7DEB7FC019381E0
S1131D8082812581981303C084812817D1F18F01A2
S1131D90892F90E0922B8B839C83E080F180C70194
S1131DA00E943B0FD7018D919C91DC01ED91FC9138
S1131DB00480F581E02D6C811995F7018081918172
S1131DC0DC01ED91FC910480F581E02D6B81199586
S1131DD08A83F70180819181DC01ED91FC91068079
S1131DE0F781E02D19958983C7010E94400FF801FE
S1131DF0838182838581848389819A81969587955D
S1131E0086832496CDBFDEBFDF91CF911F910F91C2
S1131E10FF90EF9008951F93CF93DF93EC01CB01D4
S1131E20688379830E94370FDC01ED91FC91019066
S1131E30F081E02D20E834E84EE150E064E01995AB
S1131E408FEF8C838A8310E040E0612FCE010E94E3
S1131E508C0E40E0612FCE010E94A00E1F5F18304F
S1131E6099F7CE01DF91CF911F910C94B40EFC0130
S1131E70808191810895FC01828193810C944C139B
S1131E80FC01828193810C9444130F931F93CF938D
S1131E90DF93EC018A01688379834A835B83CA01F7
S1131EA00E943C1360E0C8010E943513CE01DF910B
S1131EB0CF911F910F910C94400FDC011296ED917C
S1131EC0FC91139763831296ED91FC911397828191
S1131ED087FFFDCF83810895FC018681A281B381B0
S1131EE0811105C012968C91129787FFFBCF139630
S1131EF06C93A281B38113968C91168208958F926C
S1131F009F92AF92BF92FF920F931F93CF93DF9351
S1131F101F92CDB7DEB78C01F62E49015A01DC01C0
S1131F2012968D919C911397009709F4C6C0803C3A
S1131F30910511F460E105C08115B4E09B0719F423
S1131F4064E080E0B8C08038E1E09E0711F462E00C
S1131F50F8CF8115F1E09F0711F461E0F2CF8038EA
S1131F6023E0920711F461E00BC08039A3E09A07E3
S1131F7011F461E012C08115B2E09B0719F462E02C
S1131F8081E099C08034E2E09E0711F462E005C06C
S1131F908032F3E09F0719F464E082E08CC081157D
S1131FA028E0920711F461E07FC08115A9E09A0747
S1131FB011F461E06CC08115BAE09B0711F461E093
S1131FC079C08115EBE09E0711F461E053C08034C1
S1131FD0F8E09F0711F462E067C0803429E09207BB
S1131FE011F462E054C08034AAE09A0711F462E06C
S1131FF061C08039B8E09B0711F464E055C08039B2
S1132000E9E09E0711F464E042C08039FAE09F07DA
S113201011F464E04FC080392BE0920711F464E0BE
S113202029C0803CA8E09A0711F468E03DC0803CD8
S1132030B9E09B0711F468E02AC0803CEAE09E07FF
S113204011F468E037C0803AF8E09F0711F460E1CA
S11320502BC0803A29E0920711F460E118C0803A5D
S1132060AAE09A0711F460E125C0803ABBE09B071F
S113207019F460E186E01FC0803BE8E09E0711F49C
S113208060E212C0803BF9E09F0719F460E284E04B
S113209012C0803B2AE0920711F460E20BC0803842
S11320A0A4E09A0719F460E483E005C0803A944000
S11320B021F460E485E00E946C1BD8011496ED9134
S11320C0FC91159780EB818360E87BE082EB93E0E1
S11320D0A50194010E944F1F672B682B692B21F0E7
S11320E02F5F3F4F4F4F5F4F23303105410551055F
S11320F0E0F02530310541055105C8F0293031059E
S113210041055105B8F02131310541055105A0F0D3
S1132110213231054105510590F080E0213431052B
S11321204105510568F063E00CC081E001C080E026
S113213060E007C081E001C080E061E002C081E0AE
S113214062E0D8011296ED91FC911397811180E819
S11321506064682B8F2D8061682B6083D801129690
S1132160ED91FC91139711821296ED91FC911397C6
S1132170828187FF02C0838189830F90DF91CF9191
S11321801F910F91FF90BF90AF909F908F900895F3
S1132190FC018681811109C081E086830280F3817C
S11321A0E02D828187FFFDCF2381822F0895FC01DA
S11321B084EE90E2808391836283738344835583A6
S11321C081E0868308950C94A61FBF92CF92DF927C
S11321D0EF92FF920F931F93CF93DF93CDB7DEB7A8
S11321E02B97CDBFDEBF6C017B01142FB22E80EF85
S11321F090E2F601808391836115710509F4C6C0EC
S1132200603C710511F460E105C0611584E0780754
S113221019F464E080E0B8C0603891E0790711F403
S113222062E0F8CF6115E1E07E0711F461E0F2CFDE
S11322306038F3E07F0711F461E00BC0603983E09C
S1132240780711F461E012C0611592E0790719F47E
S113225062E081E099C06034E2E07E0711F462E05C
S113226005C06032F3E07F0719F464E082E08CC0BB
S1132270611588E0780711F461E07FC0611599E089
S1132280790711F461E06CC06115EAE07E0711F48E
S113229061E079C06115FBE07F0711F461E053C090
S11322A0603488E0780711F462E067C0603499E034
S11322B0790711F462E054C06034EAE07E0711F457
S11322C062E061C06039F8E07F0711F464E055C052
S11322D0603989E0780711F464E042C060399AE01B
S11322E0790711F464E04FC06039EBE07E0711F424
S11322F064E029C0603CF8E07F0711F468E03DC069
S1132300603C89E0780711F468E02AC0603C9AE0F8
S1132310790711F468E037C0603AE8E07E0711F409
S113232060E12BC0603AF9E07F0711F460E118C066
S1132330603A8AE0780711F460E125C0603A9BE0D6
S1132340790719F460E186E01FC0603BE8E07E078E
S113235011F460E212C0603BF9E07F0719F460E217
S113236084E012C0603B8AE0780711F460E20BC09D
S1132370603894E0790719F460E483E005C0603ABA
S1132380744021F460E485E00E946C1BF601E28253
S1132390F3820483BE016F5F7F4FC7010E94591A05
S11323A0AE01485F5F4FF6016481828193810E9490
S11323B0BB1A8A819B819F789B83817E80618A83FB
S11323C01C8283E08D83103120F0188640EF410F8A
S11323D006C0FAE0BF1207C081E08887412F440F8E
S11323E0440F440F28C0412F50E093E09B1548F060
S11323F082E0888723E0440F551F2A95E1F74B2993
S11324001AC0E7E0EB1548F0888793E0440F551FA6
S11324109A95E1F78CEF8B0D0DC082E0888783E0FD
S1132420440F551F8A95E1F7F8E0BF1611F087E0D5
S113243001C085E0482B4987BE016F5F7F4FF601DD
S1132440828193810E94FA19AE01485F5F4FF601C1
S11324506481828193810E94801AF6018281938132
S11324600E943E182B96CDBFDEBFDF91CF911F9106
S11324700F91FF90EF90DF90CF90BF900895CF938E
S1132480DF931F92CDB7DEB7FC019481A281B381A3
S11324908FB78983F89429813C9144E0949FC001CB
S11324A01124832B8C932FBF8481A281B381169630
S11324B09C91169798238913FACF16968C9394813E
S11324C00280F381E02D892F837021F496959695EF
S11324D082E001C080E090FF8F5FB09698E0899F12
S11324E0E00DF11D1124848195810F90DF91CF912E
S11324F00895AF92BF92CF92DF92EF92FF920F9323
S11325001F93CF93DF938C015B01C0E0D0E0C12C1B
S1132510D12C7601CA15DB0569F0C8010E943F126F
S1132520092E000CAA0BBB0BC80ED91EEA1EFB1EFB
S11325302196F0CFC701B601DF91CF911F910F9182
S1132540FF90EF90DF90CF90BF90AF9008950F93DE
S1132550FC01CB01642F422F202F8083918362835F
S11325600F910C94F012AB01FC0162818081918186
S11325700C94E5120F931F93CF93DF93EC01CB01DF
S1132580142F022F688379830E94E51BE881F98167
S113259081818F7980648183E881F9818281867E5B
S11325A0082B102B1283E881F98180818D60808350
S11325B0E881F981108E118EE881F981128E138ED3
S11325C0DF91CF911F910F910895DC01ED91FC9162
S11325D0611103C0408F518F0895428F538F089526
S11325E0FC01A081B181611107C019964C9301903F
S11325F0F081E02D208708951B964C930190F08183
S1132600E02D22870895FC01608371834283483062
S1132610D9F048F4423091F0443099F0413021F53A
S1132620605F7F4F1FC04032A9F018F4403179F049
S11326300895403491F0403899F008956F5E7F4FCB
S113264011C06E5E7F4F0EC06D5E7F4F0BC06C5E1F
S11326507F4F08C06B5E7F4F05C06A5E7F4F02C02C
S1132660695E7F4F638374830895DC011396ED9153
S1132670FC91149760830895DC01ED91FC9111970E
S113268012968C9181830895DC01ED91FC91119750
S113269012968C9185830895DC01ED91FC9111973C
S11326A012968C9186830895FC0160837183428322
S11326B00895462FFC016281808191810C948C0ED7
S11326C00F931F93CF93DF938C01C0E0D0E0D80128
S11326D01296ED91FC911397EC0FFD1F808191816F
S11326E00E94B40E2296C031D10589F7DF91CF91B3
S11326F01F910F9108956F927F928F929F92AF9244
S1132700BF92CF92DF92EF92FF920F931F93CF93DA
S1132710DF93EC01E22EB32EA42E952E762E672E97
S1132720F12C8C81F81668F5812CCF2CD12C8D815D
S1132730881628F58C81602F6170F601889EE00D63
S1132740F11D1124EE0FFF1F88819981E80FF91FF5
S1132750808191810E94591398014E2D5B2D6A2D21
S1132760792D872D962D01E00E94821F8901E42E88
S1132770B52EA62E972E782E692E8394D8CFF39457
S1132780D0CFCE01DF91CF911F910F91FF90EF90A9
S1132790DF90CF90BF90AF909F908F907F906F907D
S11327A00C946013CF93DF93EC018C81E62FF0E05F
S11327B0489FE00DF11D1124EE0FFF1F6881798100
S11327C0E60FF71F622F808191810E945913CE0179
S11327D0DF91CF910C946013CF92DF92EF92FF922E
S11327E00F931F93CF93DF938B01EA0183E090E073
S11327F00E94E3107C016C857D8544E00E945413A3
S1132800F801E082F18283E090E00E94E3107C0111
S11328106C857D8545E00E945413F801E282F382C1
S113282083E090E00E94E3107C016C857D8543E0A9
S11328300E945413F801E482F58283E090E00E9440
S1132840E3107C016C857D8546E00E945413F801F9
S1132850E682F78283E090E00E94E3107C016E85BB
S11328607F8544E00E945413F801E086F18683E0FA
S113287090E00E94E3107C016E857F8541E00E9418
S11328805413F801E286F38683E090E00E94E3109B
S11328907C016E857F8547E00E945413F801E4862D
S11328A0F58683E090E00E94E3107C0168857985D9
S11328B043E00E945413F801E686F78683E090E033
S11328C00E94E3107C016881798147E00E945413DF
S11328D0F801E08AF18A83E090E00E94E3107C0131
S11328E06C857D8542E00E945413F801E28AF38AE4
S11328F083E090E00E94E3107C016C857D8547E0D5
S11329000E945413F801E48AF58A83E090E00E945F
S1132910E3107C016E857F8545E00E945413F80125
S1132920E68AF78A83E090E00E94E3107C016E85DA
S11329307F8540E00E945413F801E08EF18E83E01D
S113294090E00E94E3107C016E857F8546E00E9442
S11329505413F801E28EF38E83E090E00E94E310BA
S11329607C016885798545E00E945413F801E48E62
S1132970F58E83E090E00E94E3107C016885798500
S113298042E00E945413F801E68EF78E83E090E053
S11329900E94E3107C016881798141E00E94541314
S11329A0F801E0A2F1A283E090E00E94E3107C0130
S11329B06881798146E00E945413F801E2A2F3A2EF
S11329C083E090E00E94E3107C016881798143E018
S11329D00E945413F801E4A2F5A283E090E00E945F
S11329E0E3107C016881798142E00E945413F8016C
S11329F0E6A2F7A283E090E00E94E3107C016C85DC
S1132A007D8541E00E945413F801E0A6F1A683E01D
S1132A1090E00E94E3107C016E857F8543E00E9474
S1132A205413F801E2A6F3A683E090E00E94E310B9
S1132A307C016885798540E00E945413F801E4A67E
S1132A40F5A683E090E00E94E3107C016885798517
S1132A5044E00E945413F801E6A6F7A683E090E050
S1132A600E94E3107C016881798144E00E94541340
S1132A70F801E0AAF1AA83E090E00E94E3107C014F
S1132A806881798140E00E945413F801E2AAF3AA14
S1132A9083E090E00E94E3107C016A817B8141E045
S1132AA00E945413F801E4AAF5AA83E090E00E947E
S1132AB0E3107C016C857D8540E00E945413F8018D
S1132AC0E6AAF7AA83E090E00E94E3107C016885FF
S1132AD0798547E00E945413F801E0AEF1AE83E03B
S1132AE090E00E94E3107C016E857F8542E00E94A5
S1132AF05413F801E2AEF3AE83E090E00E94E310D9
S1132B007C016A857B8542E00E945413F801E4AE9F
S1132B10F5AE83E090E00E94E3107C01688579853E
S1132B2041E00E945413F801E6AEF7AE83E090E072
S1132B300E94E3106C016A817B8146E00E94541379
S1132B407801F0E4EF0EF11CF701C082D18283E03A
S1132B5090E00E94E3106C016881798145E00E9455
S1132B605413F701C282D38283E090E00E94E31001
S1132B706C016C817D8145E00E945413F701C4828D
S1132B80D58283E090E00E94E3106C016A817B812E
S1132B9040E00E945413F701C682D78283E090E09C
S1132BA00E94E3106C016E817F8147E00E94541300
S1132BB0F701C086D18683E090E00E94E3106C01A7
S1132BC06885798546E00E945413F701C286D3864E
S1132BD083E090E00E94E3106C016A857B8547E006
S1132BE00E945413F701C486D58683E090E00E94C6
S1132BF0E3106C016A857B8543E00E945413F7015E
S1132C00C686D78683E090E00E94E3106C016A8157
S1132C107B8143E00E9454137801F0E5EF0EF11C30
S1132C20F701C082D18283E090E00E94E3106C013E
S1132C306A817B8147E00E945413F701C282D382E8
S1132C4083E090E00E94E3106C016C817D8144E09C
S1132C500E945413F701C482D58283E090E00E945D
S1132C60E3106C016E817F8146E00E945413F701EA
S1132C70C682D78283E090E00E94E3106C016A85EB
S1132C807B8545E00E945413F701C086D18683E01A
S1132C9090E00E94E3106C016A857B8544E00E9409
S1132CA05413F701C286D38683E090E00E94E310B8
S1132CB06C016A857B8541E00E945413F701C48648
S1132CC0D58683E090E00E94E3106C016A857B85E1
S1132CD046E00E945413F701C686D78683E090E04D
S1132CE00E94E3106C016A817B8145E00E945413C9
S1132CF07801F0E6EF0EF11CF701C082D18283E087
S1132D0090E00E94E3106C016A817B8142E00E94A2
S1132D105413F701C282D38283E090E00E94E3104F
S1132D206C016C817D8141E00E945413F701C482DF
S1132D30D58283E090E00E94E3106C016C817D8178
S1132D4047E00E945413F701C682D78283E090E0E3
S1132D500E94E3106C016C817D8142E00E94541357
S1132D60F701C086D18683E090E00E94E3106C01F5
S1132D706E817F8140E00E945413F701C286D3869E
S1132D8083E090E00E94E3106C016E817F8145E056
S1132D900E945413F701C486D58683E090E00E9414
S1132DA0E3106C016A857B8540E00E945413F701AF
S1132DB0C686D78683E090E00E94E3107C016A8196
S1132DC07B8144E00E94541300591F4FF801E082B4
S1132DD0F18283E090E00E94E3107C016C817D81AC
S1132DE040E00E945413F801E282F38283E090E011
S1132DF00E94E3107C016C817D8146E00E945413A3
S1132E00F801E482F58283E090E00E94E3107C0103
S1132E106C817D8143E00E945413F801E682F782BD
S1132E2083E090E00E94E3107C016E817F8141E0A9
S1132E300E945413F801E086F18683E090E00E943A
S1132E40E3107C016E817F8144E00E945413F801F9
S1132E50E286F38683E090E00E94E3107C016E81B9
S1132E607F8142E00E945413F801E486F58683E0F2
S1132E7090E00E94E3107C016E817F8143E00E9418
S1132E805413F801E686F786DF91CF911F910F91D5
S1132E90FF90EF90DF90CF9008950F931F93FC0164
S1132EA0648345832083318302831383A801B9019A
S1132EB01F910F910C94EC13FC016587768747876B
S1132EC0508B138614860895FC018285853011F495
S1132ED0148634C02385893081F1828593858430BA
S1132EE0910521F158F481309105E1F0C8F0823068
S1132EF09105D1F0039709F584E01DC0873035E0D2
S1132F009307B1F028F486309540B9F486E013C0F5
S1132F10883036E0930771F08830974059F00DC03F
S1132F2081E009C082E007C083E005C085E003C0FA
S1132F3087E001C088E0848701C0248712868485E5
S1132F4083870895FC0162870C946417FC018385D0
S1132F500895FC01878590890895CF93DF93EC0150
S1132F609B01AFEFBFE00E94711F28EF3AE240E0FF
S1132F7050E00E944F1FB9018E819F81DF91CF9154
S1132F800C94B312CF93DF93EC019B01AFEFBFE03E
S1132F900E94711F20E533EC40E050E00E944F1F77
S1132FA0B9018C819D81DF91CF910C94B312EF9282
S1132FB0FF920F931F93CF93DF93EC017B016A83FE
S1132FC07B83488359832C833D830E831F83BA01FB
S1132FD00E94AD17B701CE01DF91CF911F910F91E0
S1132FE0FF90EF900C94C2170895CF93DF931F9234
S1132FF0CDB7DEB78FB78983F89489810F90DF91BD
S1133000CF910895811522E0920759F480915623B7
S113301091E0980F90935623811112C062E081E0F1
S11330200DC08034924061F48091552391E0980F53
S113303090935523811104C062E082E00C946C1BD0
S11330400895811522E0920751F48091562381500E
S113305080935623811111C062E081E00CC080345A
S1133060924059F4809155238150809355238111C6
S113307004C062E082E00C947E1B08951F93CF93FA
S1133080DF93EC010E94F517182FCE010E9402185D
S11330908881816088831FBF809111248F3F09F448
S11330A0FFCF0E94F517909111249F5F90931124F4
S11330B08FBFDF91CF911F910895CF93DF931F921C
S11330C0CDB7DEB78FB78983F89489810F90DF91EC
S11330D0CF9108951F920F920FB60F9211240BB641
S11330E00F922F933F934F935F936F937F938F939D
S11330F09F93AF93BF93EF93FF934091240250911A
S11331002502E0910E24F0910F2461E080E092E02A
S11331101995FF91EF91BF91AF919F918F917F91FD
S11331206F915F914F913F912F910F900BBE0F9034
S11331300FBE0F901F9018951F920F920FB60F920B
S113314011240BB60F922F933F934F935F936F937A
S11331507F938F939F93AF93BF93EF93FF9340918C
S11331602C0250912D02E0910E24F0910F2462E084
S113317080E092E01995FF91EF91BF91AF919F91FB
S11331808F917F916F915F914F913F912F910F900C
S11331900BBE0F900FBE0F901F9018951F920F92A9
S11331A00FB60F9211240BB60F922F933F934F93A8
S11331B05F936F937F938F939F93AF93BF93EF939B
S11331C0FF934091340250913502E0910E24F09126
S11331D00F2464E080E092E01995FF91EF91BF9194
S11331E0AF919F918F917F916F915F914F913F919B
S11331F02F910F900BBE0F900FBE0F901F9018953C
S11332001F920F920FB60F9211240BB60F922F93A9
S11332103F934F935F936F937F938F939F93AF935A
S1133220BF93EF93FF9340913C0250913D02E09194
S11332300E24F0910F2468E080E092E01995FF914C
S1133240EF91BF91AF919F918F917F916F915F911A
S11332504F913F912F910F900BBE0F900FBE0F9087
S11332601F9018951F920F920FB60F9211240BB650
S11332700F922F933F934F935F936F937F938F930B
S11332809F93AF93BF93EF93FF9340916402509148
S11332906502E0910C24F0910D2461E080E492E059
S11332A01995FF91EF91BF91AF919F918F917F916C
S11332B06F915F914F913F912F910F900BBE0F90A3
S11332C00FBE0F901F9018951F920F920FB60F927A
S11332D011240BB60F922F933F934F935F936F93E9
S11332E07F938F939F93AF93BF93EF93FF934091FB
S11332F06C0250916D02E0910C24F0910D2462E077
S113330080E492E01995FF91EF91BF91AF919F9165
S11333108F917F916F915F914F913F912F910F907A
S11333200BBE0F900FBE0F901F9018951F920F9217
S11333300FB60F9211240BB60F922F933F934F9316
S11333405F936F937F938F939F93AF93BF93EF9309
S1133350FF934091740250917502E0910C24F09116
S11333600D2464E080E492E01995FF91EF91BF9100
S1133370AF919F918F917F916F915F914F913F9109
S11333802F910F900BBE0F900FBE0F901F901895AA
S11333901F920F920FB60F9211240BB60F922F9318
S11333A03F934F935F936F937F938F939F93AF93C9
S11333B0BF93EF93FF9340917C0250917D02E09183
S11333C00C24F0910D2468E080E492E01995FF91BB
S11333D0EF91BF91AF919F918F917F916F915F9189
S11333E04F913F912F910F900BBE0F900FBE0F90F6
S11333F01F901895DF92EF92FF920F931F93CF9334
S1133400DF937C018B01E11482E0F80651F461E260
S113341070E082E00E94041CC82FD0E060E270E0FB
S11334200EC0E0E4EE16E2E0FE06D9F565E270E0D7
S113343082E00E94041CC82FD0E064E270E082E0C5
S11334400E94041CDC2FCC27C82B0E945D18D82EA8
S1133450C7010E940218F701808192E09083C4871B
S1133460D587F80125813681F701208F318FF80146
S11334709281F7019283F8019481F7019483F80112
S11334809381F7019383F8019181F701918381700E
S1133490F8019081892BF7018083C7010E942118CC
S11334A0DFBEDF91CF911F910F91FF90EF90DF90DE
S11334B00895FF920F931F93CF93DF93EC018B0139
S11334C00E945D18F82ECE010E9402188881807C2B
S11334D0F8018083888D998D858396838A81828380
S11334E08C8184838B81838389818183CE010E9433
S11334F02118FFBEDF91CF911F910F91FF90089586
S1133500CF92DF92EF92FF920F931F93CF93DF93AB
S11335106C01F62E8A01862F8370962F21F49695DE
S1133520969582E001C080E090FF8F5FE601A0964F
S113353098E0899FC00DD11D11240E945D18E82ECA
S1133540C6010E940218F8018081888382818A83DF
S113355081818983F0FE02C083818E83C6010E942B
S11335602118EFBEDF91CF911F910F91FF90EF9043
S1133570DF90CF900895CF92DF92EF92FF920F9356
S11335801F93CF93DF936C01F62E8A01862F8370ED
S1133590962F21F49695969582E001C080E090FFE5
S11335A08F5FE601A09698E0899FC00DD11D11247C
S11335B00E945D18E82EC6010E9402188881F80155
S11335C080838A81828389818183F0FE02C08E8117
S11335D08383C6010E942118EFBEDF91CF911F9112
S11335E00F91FF90EF90DF90CF900895CF93DF93EA
S11335F01F92CDB7DEB78FB78983F89489810F9076
S1133600DF91CF910895CF93DF9300D01F92CDB770
S1133610DEB78FEF80937000809371008093720007
S11336208093730080937400809375008093760078
S11336306CE170E082E00E94041C8C836DE170E018
S113364082E00E94041C8B838B819C81019621F46F
S113365080E493E28B839C838B819C8189839A830E
S1133660809362008A81809363008091510084FD7D
S11336700FC00E94F61A9FE190935500909150005C
S11336809061909350008FBF8091510084FFFCCFD4
S113369064E080E490E00E940E1C0E94F61A90916F
S11336A050009460909350008FBF8091510082FF2E
S11336B0FCCF0E94F61A909156009E7F909356007C
S11336C0909168009160909368008FBF2496CDBF5D
S11336D0DEBFDF91CF910895CF93DF93C82FD62F0C
S11336E00E94F61AEC2FF0E0E059FF4FD09590813C
S11336F0D923D0838FBFDF91CF910895CF93DF93E8
S1133700C82FD62F0E94F61AEC2FF0E0E059FF4F95
S11337109081D92BD0838FBFDF91CF910895CF9320
S1133720863011F0C0E001C0C8E18091510081FDF4
S113373024C00E94F61A9091500092609093500019
S11337408FBF8091510081FFFCCF0E94F61A9091A7
S11337505600997F9093560090E8909365009BEBF8
S113376090936600909156009460909356009091C7
S113377060009160909360008FBF6C2F636084E45D
S113378090E00E940E1C60E480E0CF910C946C1BCE
S1133790CF93DF931F92CDB7DEB78FB78983F894A9
S11337A089810F90DF91CF9108958032934061F425
S11337B08091572391E0980F90935723811104C06F
S11337C064E082E00C946C1B08951F93CF93DF9305
S11337D0EC010E94C81B182F809111248F3F09F41B
S11337E0FFCF0E94C81B909111249F5F90931124D6
S11337F08FBFCE010E94D51B8881816088831FBF43
S1133800DF91CF911F9108954091CA01E62FF72FC0
S11338108093CA0184914093CA0108951BBEFC01A0
S113382028ED24BF608308950895009709F4C6C065
S1133830803C910511F460E105C0811524E09207F4
S113384019F464E080E0B8C0803821E0920711F4F4
S113385062E0F8CF811521E0920711F461E0F2CF24
S1133860803823E0920711F461E00BC0803923E033
S1133870920711F461E012C0811522E0920719F455
S113388062E081E099C0803422E0920711F462E0A2
S113389005C0803223E0920719F464E082E08CC012
S11338A0811528E0920711F461E07FC0811529E0B9
S11338B0920711F461E06CC081152AE0920711F4BB
S11338C061E079C081152BE0920711F461E053C0E7
S11338D0803428E0920711F462E067C0803429E064
S11338E0920711F462E054C080342AE0920711F484
S11338F062E061C0803928E0920711F464E055C0A9
S1133900803929E0920711F464E042C080392AE04A
S1133910920711F464E04FC080392BE0920711F450
S113392064E029C0803C28E0920711F468E03DC0BF
S1133930803C29E0920711F468E02AC0803C2AE028
S1133940920711F468E037C0803A28E0920711F436
S113395060E12BC0803A29E0920711F460E118C0BD
S1133960803A2AE0920711F460E125C0803A2BE006
S1133970920719F460E186E01FC0803B28E09207BB
S113398011F460E212C0803B29E0920719F460E26E
S113399084E012C0803B2AE0920711F460E20BC07D
S11339A0803824E0920719F460E483E005C0803A8B
S11339B0944021F460E485E00C946C1B08950F930B
S11339C01F93CF93DF9388E090E00E94E310EC0113
S11339D00091682310916923209166233091672315
S11339E04091CE205091CF206091D0207091D12071
S11339F00E94D717C0936423D0936523DF91CF919E
S1133A001F910F9108950F931F93CF93DF938AE033
S1133A1090E00E94E310EC01009160231091612377
S1133A2020915C2330915D2340915A2350915B2374
S1133A3060916223709163230E948201C093582392
S1133A40D0935923DF91CF911F910F9108950F9334
S1133A501F93CF93DF9386E090E00E94E310EC0184
S1133A600CEE13E22CE633E24091CC206091CD20A1
S1133A700E944D17C0936023D0936123DF91CF91AF
S1133A801F910F910895CF93DF9382E090E00E94FD
S1133A90E310EC0160916023709161230E946F0236
S1133AA0C0935E23D0935F23DF91CF910895CF938A
S1133AB0DF9381E190E00E94E310EC0140916423E4
S1133AC05091652360916023709161230E945C177B
S1133AD0C0935C23D0935D23DF91CF9108950E941E
S1133AE08F050C94FA0ACF92DF92EF92FF920F9314
S1133AF01F93CF93DF9387E090E00E94E3108C0143
S1133B0040E456E060EC78E00E94D71085E090E055
S1133B100E94E3107C0140E160EA76E00E94031316
S1133B2084E090E00E94E310EC01A701B8010E9438
S1133B30450F87E090E00E94E3107C01BE010E94E3
S1133B400B0FCCEED3E2E882F98285E090E00E948C
S1133B50E3107C0144E060E076E00E94031384E01B
S1133B6090E00E94E3106C01A701B8010E94450F88
S1133B7087E090E00E94E3107C01B6010E940B0FE5
S1133B80EA82FB8285E090E00E94E3107C0148E039
S1133B9060E076E00E94031384E090E00E94E3106A
S1133BA06C01A701B8010E94450F87E090E00E94D4
S1133BB0E3107C01B6010E940B0FEC82FD8285E0CC
S1133BC090E00E94E3106C0142E060E476E00E9421
S1133BD0031384E090E00E94E3107C01A601B80185
S1133BE00E94450F87E090E00E94E3108C01B7012A
S1133BF00E940B0F0E831F8387E090E00E94E31066
S1133C008C0140E856E060EC7AE00E94D71085E031
S1133C1090E00E94E3107C0140E260E676E00E94BE
S1133C20031384E090E00E94E3106C01A701B80143
S1133C300E94450F87E090E00E94E3107C01B601EA
S1133C400E940B0FE886F98685E090E00E94E3105D
S1133C507C0140E160E676E00E94031384E090E09A
S1133C600E94E3106C01A701B8010E94450F87E090
S1133C7090E00E94E3107C01B6010E940B0FEA86DB
S1133C80FB8685E090E00E94E3107C0140E160E85F
S1133C9076E00E94031384E090E00E94E3106C013C
S1133CA0A701B8010E94450F87E090E00E94E3104D
S1133CB07C01B6010E940B0FEC86FD8685E090E046
S1133CC00E94E3106C0141E060E876E00E94031377
S1133CD084E090E00E94E3107C01A601B8010E94F8
S1133CE0450F87E090E00E94E3108C01B7010E9429
S1133CF00B0F0E871F87DF91CF911F910F91FF90BC
S1133D00EF90DF90CF9008950F93CF93DF9385E0EA
S1133D1090E00E94E310EC0101E020E047E060E065
S1133D2072E00E94E510C0936A23D0936B23DF9165
S1133D30CF910F910895EF92FF920F93CF93DF935A
S1133D4082E090E00E94E310EC0120E040E060E2B9
S1133D5073E00E94BA1283E090E00E94E3107C01B9
S1133D600AE026E140E0BE010E94A712E092662329
S1133D70F092672383E090E00E94E3107C0101E06D
S1133D8020E141E0BE010E94A712E0926823F09274
S1133D906923DF91CF910F91FF90EF90089580E018
S1133DA099E00E94151CE0E0F9E081E08083148230
S1133DB080E392EF86A397A310A211A282E08683E8
S1133DC008950E94141C87E08093A20078941092B6
S1133DD01024109211241092122410921324109281
S1133DE0142481E0809315240E94031B0E94731DF8
S1133DF00E94271D0E94841E0E949B1E0E94DF1C9D
S1133E0080E296E00E94151C0E94571D0E946F1DBF
S1133E100E94431D0E94CF1E0E94031D80915823BF
S1133E20909159230E944802F9CF1F920F920FB626
S1133E300F92112400000F900FBE0F901F90189541
S1133E40CF93DF9381E090E00E94E310EC010E94A5
S1133E50F417C0936223D093632381E090E00E941F
S1133E60E310EC010E945601C0935A23D0935B23C4
S1133E70DF91CF910895AA1BBB1B51E107C0AA1F74
S1133E80BB1FA617B70710F0A61BB70B881F991FF7
S1133E905A95A9F780959095BC01CD010895A1E2AA
S1133EA01A2EAA1BBB1BFD010DC0AA1FBB1FEE1FB0
S1133EB0FF1FA217B307E407F50720F0A21BB30BFB
S1133EC0E40BF50B661F771F881F991F1A9469F777
S1133ED060957095809590959B01AC01BD01CF01D3
S1133EE00895A29FB001B39FC001A39F700D811DCF
S1133EF01124911DB29F700D811D1124911D0895EF
S1133F0097FB10F8169400080F93083098F00850A7
S1133F10232F342F452F562F672F782F892F902D3D
S1133F20F4CF059497958795779567955795479519
S1133F30379527950A95AAF70F910895EE0FFF1F5D
S1133F40881F8BBF0790F691E02D19940F931F9350
S1133F50CF93DF938230910510F482E090E0E091FA
S1133F601824F091192420E030E0A0E0B0E030976C
S1133F7019F1408151810281138148175907C8F012
S1133F808417950769F4109731F012960C931297E1
S1133F9013961C9327C0009318241093192422C04D
S1133FA02115310519F04217530718F49A01BD0180
S1133FB0EF01DF01F801DBCF21153105F9F0281BF2
S1133FC0390B2430310580F48A819B816115710598
S1133FD021F0FB018283938304C08093182490937F
S1133FE01924FE01329644C0FE01E20FF31F8193AF
S1133FF0919322503109288339833AC020911624A1
S113400030911724232B41F4209102203091032076
S113401020931624309317242091002030910120FE
S11340202115310541F42DB73EB74091042050913C
S11340300520241B350BE0911624F0911724E21778
S1134040F307A0F42E1B3F0B2817390778F0AC01B7
S11340504E5F5F4F2417350748F04E0F5F1F4093A4
S11340601624509317248193919302C0E0E0F0E06A
S1134070CF01DF91CF911F910F910895CF93DF93DB
S1134080009709F481C0FC01329712821382A09137
S11340901824B0911924109781F420813181820F62
S11340A0931F20911624309117242817390751F5AE
S11340B0E0931624F093172467C0ED0120E030E06C
S11340C0CE17DF0740F44A815B819E0141155105FB
S11340D0F1F0EA01F5CFC283D38340815181840F8B
S11340E0951FC817D90759F488819981840F951FA2
S11340F00296808391838A819B8182839383211595
S1134100310529F4E0931824F09319243DC0E90102
S1134110EA83FB8349915991C40FD51FEC17FD071E
S113412061F480819181840F951F0296E90188834F
S11341309983828193818A839B83E0E0F0E01296E5
S11341408D919C911397009719F0FD01DC01F7CF35
S11341508D919C9111979D012E5F3F4F820F931F6C
S113416020911624309117242817390769F43097C1
S113417029F4109218241092192402C01282138276
S1134180A0931624B0931724DF91CF910895FB01D7
S1134190DC0102C001900D9241505040D8F70895BF
S10741A0F894FFCFBD
S11341A400001A2420001004B102BB02BD029603CD
S11341B48002AB02C002BD02000000030000000044
S11341C400000000000000000000000000000000E7
S11341D400000000000000000000000000000000D7
S11341E4000000004C454420447269766572005313
S11341F4757065726C696768742050686F746F6E4B
S11342046963730004030904BA206E200000762055
S113421472201020062009024300020100C005098F
S11342240400000102020100052400100104240218
S11342340205240600010524010301070582034045
S1134244001009040100020A00000007058102406D
S113425400000705020240000000120100020200EF
S11342640040EB0304240001010200010808F82AB9
S11342746400100020004000800000010002FF03DD
S1134284000000007F0F5D0F6C0FC81000000000D9
S1054294791299
S9030000FC
