S012000050726F746F74797065312E737265630B
S11300000C9438010C9469010C9469010C946901F5
S11300100C9469010C9469010C9469010C946901B4
S11300200C9469010C9469010C9469010C946901A4
S11300300C9469010C9469010C9469010C94690194
S11300400C9469010C9469010C9469010C94690184
S11300500C9469010C9469010C9469010C94690174
S11300600C9469010C9469010C9469010C94690164
S11300700C9469010C9469010C9469010C94690154
S11300800C9469010C9469010C9469010C94690144
S11300900C9469010C9469010C9469010C94B91CC9
S11300A00C94EB1C0C941D1D0C944F1D0C946901B5
S11300B00C9469010C9469010C9469010C94690114
S11300C00C9469010C9469010C9469010C94690104
S11300D00C9469010C9469010C9469010C946901F4
S11300E00C9469010C9469010C9469010C946901E4
S11300F00C9469010C9469010C9469010C946901D4
S11301000C9469010C9469010C9469010C946901C3
S11301100C9469010C9469010C9469010C94F11B11
S11301200C94231C0C94551C0C94871C0C9469018E
S11301300C9469010C941E220C9469010C946901BD
S11301400C9469010C9469010C9469010C94690183
S11301500C9469010C9469010C9469010C94690173
S11301600C9469010C9469010C9469010C94690163
S11301700C9469010C9469010C9469010C94690153
S11301800C9469010C9469010C9469010C94690143
S11301900C9469010C9469010C9469010C94690133
S11301A00C9469010C9469010C9469010C94690123
S11301B00C9469010C9469010C9469010C94690113
S11301C00C9469010C9469010C9469010C94690103
S11301D00C9469010C9469010C9469010C946901F3
S11301E00C9469010C9469010C9469010C946901E3
S11301F00C9469010C94340F0C94F60F050A080A48
S11302000B0A0E0A110A140A170A0C94D1030C944F
S1130210C3150C94C6020C94D4020C9495020C944D
S1130220140A0C941E030C94D0020C940E0A0C9421
S113023061040C9429220C9458050C94110A0C9412
S113024095040C940E120C94D6110C94170A0C9469
S1130250EA030C94C0020C94D2020C94E5110C94A1
S1130260FF110C940B0A0C94080A0C94050A292219
S113027011241FBECFEFCDBFDFE5DEBF00E00CBF12
S113028010E2A0E0B0E2E6EBF7E400E00BBF02C04E
S113029007900D92A43EB107D9F724E2A4EEB0E290
S11302A001C01D92AE30B207E1F711E0C8E3D1E01E
S11302B000E006C021970109802FFE010E947A22E6
S11302C0C733D10780E00807A9F70E94F2210C94F4
S11302D0D9230C9400000895FB018081089581E0E6
S11302E0FB0190819A3008F080E008950F931F93EA
S11302F0CF93DF93EC01088719872E833F836A83AA
S11303007B834C835D8384E090E00E94C7138883E1
S11303109983DF91CF911F910F910895CF92DF922E
S1130320EF92FF920F931F93CF937C01DC01ED9129
S1130330FC9111971082118212821382CD90DC906D
S1130340C3E00E94C6048823E1F386010C0F111D4B
S11303500E941F05F8018083C15098F7D701ED91E1
S1130360FC9180819181A281B381282F2170492F32
S11303704F77B695A79597958795682F6F77F7016F
S1130380808591850E944817CF911F910F91FF900E
S1130390EF90DF90CF900895CF92DF92EF92FF928B
S11303A00F931F93CF936C0188E090E00E94C713D2
S11303B07C01C7E00E94C6048823E1F387010C0F87
S11303C0111D0E941F05F8018083C15098F7F701A1
S11303D00081118122813381448155816681778135
S11303E0F601808591850E94E116CF911F910F91AE
S11303F0FF90EF90DF90CF9008950F931F93CF93CA
S1130400DF938C0182E090E00E94C713EC010E940C
S1130410C6048823E1F30E941F0589830E94C60451
S11304208823E1F30E941F058883F8018681978160
S11304300E94351B688179810E94391BDF91CF911D
S11304401F910F9108950F931F93CF93DF938C0106
S113045082E090E00E94C713EC010E94C604882346
S1130460E1F30E941F0589830E94C6048823E1F3F7
S11304700E941F058883F801868197810E94351B9D
S1130480688179810E944F1BDF91CF911F910F9159
S11304900895CF93DF93EC018E819F810E94321BDC
S11304A0823069F018F4813031F014C0833059F08F
S11304B0843069F00FC0CE010E948E010BC0CE01C2
S11304C00E94CC0107C0CE010E94FD0103C0CE01F1
S11304D00E942302DF91CF910895CF93DF93EC0123
S11304E00E94C6048823E1F30E941F0560E070E0C7
S11304F0FB0180838C819D810E946F01882371F0B0
S113050060E070E08C819D810E946C01682F8E8177
S11305109F810E942D1BCE010E944902DF91CF9141
S11305200895FC016083718308951092FA2110925A
S1130530062210920722ECEFF1E281EA808380E246
S11305408183128213821482158282E090E0868372
S1130550978310861186E8E0F2E280E092ECA1E055
S1130560B0E080839183A283B3831482158288E0F0
S113057086838091FA218F5F8093FA2181E0089528
S11305808091FA2181508093FA2108958091F92174
S113059081508093F9218091F9211092F8210895D6
S11305A080E0089580E008958091F0238823CCF4BE
S11305B080768032B9F58091F1238132A9F580915A
S11305C0F6239091F723079789F5E0EFF3E288E0AB
S11305D092E28087918787E090E08287938781E029
S11305E008958076803221F58091F123803221F0C4
S11305F0823201F180E008958091F6239091F723EF
S11306000797D1F4E0EFF3E28EE193E084879587D6
S113061088E092E28087918787E090E082879387E1
S113062081E0089580E0089580E0089580E00895D1
S113063080E0089581E0089580E008950895FF9290
S11306400F931F93CF93DF931F92CDB7DEB78091A3
S1130650E72081119FC00E94E90C882351F000918A
S1130660E8201091E9200E94F60C0817190759F4A4
S113067091C00091E8201091E9200E94F10C081724
S1130680190709F487C08FB78983F89419810091F9
S1130690EA20E02FF0E0EE0FFF1FE551FF4D8081CF
S11306A09181892B09F58091E4209091E5200196B0
S11306B08093E4209093E5200E94E90C811107C007
S11306C08091E4209091E5208436910558F00E94B1
S11306D0E90C882349F08091E4209091E520803250
S11306E0934010F41FBF56C01092E4201092E520EE
S11306F08091E620811106C081E0011180E08093A1
S1130700EA2004C081E0011180E0082F81E0809399
S1130710E7201FBF10E0F801EE0FFF1FE551FF4D6A
S113072080819181FF24F3948034910509F4F12CA4
S11307308034910591F00E94E90C882339F00E94DD
S1130740F60C8093E8209093E9200BC00E94F10CF2
S11307508093E8209093E92004C01092E82010923E
S1130760E920F801EE0FFF1FE551FF4D2081318193
S1130770A8010024569547950794569547950794E4
S1130780542F402D40515F4D01ED13E06F2D81E852
S11307900E94DB0D0F90DF91CF911F910F91FF907D
S11307A00895811116C02091EA2081E090E022236F
S11307B011F080E090E0880F991FFC01E551FF4D96
S11307C0108211821092E6201092E72080E00E94AD
S11307D01F03089580E00E941F030895CF93DF93C1
S11307E01F92CDB7DEB78FB78983F89449812091E2
S11307F0712130917221E0917321F0E0EE0FFF1F1F
S1130800EC58FE4D808191814FBF821B930B0F905A
S1130810DF91CF9108950E94EE0321E0892B09F422
S113082020E0822F08950F931F93CF93DF931F929D
S1130830CDB7DEB78FB78983F8949981209173215E
S113084080917021811110C0609171217091722189
S1130850022F10E0F801EE0FFF1FEC58FE4D40810F
S113086051816417750718F49FBF80E024C010926B
S113087071211092722181E0211180E08093732113
S113088081E0809370219FBF80E00E940B04A80147
S11308900024569547950794569547950794542FE9
S11308A0402D48585E4D05E914E020E430E061E055
S11308B082E00E94DB0D0F90DF91CF911F910F9189
S11308C008951092F9211092E7201092E6201092D8
S11308D0EA20EBEEF0E2108211821282138210926F
S11308E0E8201092E92080E00E941F0310927021FA
S11308F010927321E4E7F1E21082118212821382D2
S1130900109271211092722180E00E9413048823B6
S113091059F09091F9219F5F9093F9219091F921D9
S1130920913011F49093F82108950F931F9381113E
S11309302AC080917321E1E08111E0E0842F6115E8
S11309407105A9F44E2F50E000245695479507945D
S1130950569547950794542F402D48585E4D05E908
S113096014E020E430E061E00E94DB0D0CC0F0E014
S1130970EE0FFF1FEC58FE4D6083718310927021BF
S113098080E00E9413041F910F91089580E00E945B
S11309900B040895EF92FF921F93CF93DF931F925E
S11309A0CDB7DEB711E080910E22893009F010E056
S11309B040E050E08FB78983F894A9812091712198
S11309C0309172218091732190E0FC01EE0FFF1FA2
S11309D0EC58FE4D60817181AFBF2617370730F0A8
S11309E08091F8218111E6CF90E022C0FC0100241F
S11309F0F695E7950794F695E7950794FE2FE02D75
S1130A00E858FE4DE20FF31F80817A01E82A2F5F38
S1130A103F4F209371213093722180E00E94130490
S1130A20112321F05E2D442710E0C4CF8E2D9F2D7D
S1130A300F90DF91CF911F91FF90EF90089580E088
S1130A400E94CA040895E0911422F09115220190A5
S1130A50F081E02D228133812E0F3F1FFC01408164
S1130A60E40FF11DE217F307A0F481818430A1F0B3
S1130A70861306C014C081818430A1F08617A9F0C2
S1130A808081E80FF11DE217F307A8F380E090E0FE
S1130A90089580E090E0089580E090E008958E2F1E
S1130AA09F2F089580E090E008958E2F9F2F089542
S1130AB08091F2238F770E94EB0C08959091162277
S1130AC0992381F1E0911422F09115220190F08193
S1130AD0E02D9481891740F5E0931222F0931322BC
S1130AE0228133812E0F3F1FE217F307F8F491811F
S1130AF0943061F49281891309C09381961306C0DE
S1130B00E0931222F093132281E008959081E90F7B
S1130B10F11DE217F30758F3E0931222F093132226
S1130B2080E0089580E0089580E0089580E00895CD
S1130B30EF92FF921F93CF93DF93C82F60E00E9440
S1130B405E05182F882391F1A0911422B0911522EB
S1130B50EC2FF0E0EE0FFF1F12968D919C911397EE
S1130B60E80FF91FE080F180D7011696ED91FC9112
S1130B7017971995682F8C2F0E945E05182F8823CC
S1130B80A9F0C0911222D091132265E0CE010E94F7
S1130B902305EC01892B21F08A810E94F90EF5CFFF
S1130BA0D7011296ED91FC9113971995812FDF913E
S1130BB0CF911F91FF90EF9008951F93CF93DF93F0
S1130BC0182F0E945E05882349F1C0911222D0910A
S1130BD0132265E0CE010E942305EC01892B49F024
S1130BE04C815D816B818A810E94000D8111F1CF5E
S1130BF015C0A0911422B0911522E12FF0E0EE0F60
S1130C00FF1F12968D919C911397E80FF91F019085
S1130C10F081E02D0190F081E02D1995DF91CF91C5
S1130C201F9108950E94630C0895CF93809116221A
S1130C308823C9F0E0911422F09115220190F081EB
S1130C40E02D8481882379F0C0E08C2F0E949805E0
S1130C50CF5FE0911422F09115220190F081E02DF4
S1130C608481C81790F31092162281E090E080935B
S1130C701A2290931B22CF910895CF93809116222C
S1130C80882349F1A0911422B0911522ED91FC9191
S1130C90119784818823F9F0C0E0EC2FF0E0EE0F87
S1130CA0FF1F12968D919C911397E80FF91F0190E5
S1130CB0F081E02D0084F185E02D309709F019953D
S1130CC0CF5FA0911422B0911522ED91FC91119760
S1130CD08481C81710F3CF9108950F931F93CF9376
S1130CE0DF93E0EFF3E212861386148615861686E8
S1130CF01786808188230CF078C22091F6233091E6
S1130D00F7232115310509F075C267C28F7109F007
S1130D10A7C09091F123963081F0983009F495C0E2
S1130D2091119EC02230310509F012C262E070E0D8
S1130D308AE192E20E94F90C62C28091F2239091BE
S1130D40F323292F332722303105B1F020F4213049
S1130D50310541F0BDC123303105F1F12F303105AA
S1130D6061F1B6C18091682090916920DC016C9199
S1130D7070E00E94F90C5AC0E0916820F09169205B
S1130D802189821708F0E4C19927880F991F880FD9
S1130D90991FE0916A20F0916B20E80FF91F808180
S1130DA09181FC01628173810E94F90CE091F82326
S1130DB0F091F92382E0818339C080916C20909175
S1130DC06D20009709F4C4C1DC0112966D917C91E9
S1130DD013970E94F90C2AC099278130910579F064
S1130DE038F0029709F07DC1E4E4F0E23AE00AC089
S1130DF064E070E084E690E20E94F90C17C0EFE42E
S1130E00F0E234E1ACE1B0E220E0819190E08D9336
S1130E109D932F5F2317C8F3632F660F6E5F609354
S1130E201A2070E08AE190E20E94F90CE0EFF3E20C
S1130E3086819781228533858217930708F0DFC165
S1130E408093FA239093FB23DAC12130310509F012
S1130E507FC161E070E086E192E20E94F90CCFC1AB
S1130E608130F1F59091F1239A30D1F5213031059B
S1130E7009F03CC180911622882309F437C1C0913E
S1130E80F423D091F5230091142210911522D80156
S1130E90ED91FC918481C81708F028C160E08C2F83
S1130EA00E945E05882309F41CC1CE019927880F8E
S1130EB0991FD8011296ED91FC911397E80FF91F31
S1130EC00190F081E02D86819781FC011995809332
S1130ED0182261E070E088E192E20E94F90C8FC16F
S1130EE0823009F0FEC08091F1238111F3C02230D9
S1130EF0310509F02DC18091F4230E94880D90E002
S1130F00809310229093112262E070E080E192E2DB
S1130F100E94F90C74C18F7109F086C09091F1237D
S1130F20933009F4D9C018F49130A1F07DC0953004
S1130F3019F0993039F178C08091F6239091F72314
S1130F40892B09F005C188E595E08093FC239093F3
S1130F50FD2355C18091F6239091F723892B09F045
S1130F60F7C08091F2239091F323019709F0F0C028
S1130F7080911A2290911B228D7F80931A22909344
S1130F801B223DC18091F6239091F723892B09F010
S1130F90DFC00E94EE0C882309F4A3C02091F22341
S1130FA03091F3233327E0916820F09169208189FF
S1130FB090E08217930708F494C00E94150680916C
S1130FC0F2239091F32380931622882309F417C106
S1130FD099278150904C880F991F880F991FE09191
S1130FE06A20F0916B20E80FF91FE0931422F0932C
S1130FF015220190F081E02D8481882309F4FFC03B
S1131000C0E060E08C2F0E94DD05882309F469C0EC
S1131010CF5FE0911422F09115220190F081E02D30
S11310208481C81770F3EBC08130F9F49091F123F7
S11310309B30D9F48091F6239091F723892B09F002
S113104055C080911622882309F450C0E0EFF3E2E2
S1131050C481D2818C2F0E949805882309F441C051
S11310606D2F8C2F0E94DD053AC08230D1F580911E
S1131070F123813019F08330A1F030C08091F62340
S11310809091F723892B09F063C08091F22390910A
S1131090F323892B09F05CC08091F4230E94A30DF3
S11310A01EC08091F6239091F723892B09F050C03C
S11310B08091F2239091F323892B09F049C0C0EF6A
S11310C0D3E28C810E94A90E8C810E94160F07C066
S11310D080E005C080E003C080E001C080E08111B1
S11310E08FC08091F0238F71813091F58091162209
S11310F0882309F474C00091F4231091F523C0915E
S11311001422D0911522E881F9818481081708F00E
S113111068C060E0802F0E945E058823C9F0F80152
S1131120FF27CF01880F991FEA81FB81E80FF91F80
S1131130C081D181EE81FF811995682F802F0E9493
S11311405E05882329F0EC81FD811995811158C031
S11311508091F0238F71823009F045C0809116226E
S11311608823B9F1A0911422B0911522ED91FC913C
S113117011978481882379F1C0E0EC2FF0E0EE0F21
S1131180FF1F12968D919C911397E80FF91F008110
S11311901181D8011696ED91FC9117971995682F36
S11311A08C2F0E945E05882359F1D8011496ED9185
S11311B0FC9115971995811123C0CF5FA09114223A
S11311C0B0911522ED91FC9111979481C917A8F261
S11311D017C080E015C080E013C080E011C080E03B
S11311E00FC080E00DC080E00BC0982F907609F00E
S11311F078CF91CE982F907609F073CF87CD81E088
S1131200DF91CF911F910F910895CF93DF931F9298
S11312101F92CDB7DEB7811126C090914823992340
S1131220F9F090910524911101C0FFCF9FB79A83E3
S1131230F8942A81E4E0F4E29181915091832FBFE4
S11312400FC0909105249F3F09F4FFCF9FB7998366
S1131250F8942981E4E0F4E291819F5F91832FBFA8
S11312608093482305C090914823992351F3F8CFE4
S11312700F900F90DF91CF9108950F93E8ECF4E075
S113128080818F7D808380818F7D8083ECE1F3E298
S113129002E0059310921E2310921F2300E206938E
S11312A000E40693E4E1F3E200E40693E0EFF3E202
S11312B014861586168617861286138610920523C1
S11312C00F9108950F9385E080930523EDE1F3E2F8
S11312D004E00593E5E1F3E204E005930F9108953A
S11312E00F9383E08093052310921E2310921F23F3
S11312F0ECE1F3E202E006930F910895E091FC2300
S1131300F091FD23309709F0199508950F93CF9329
S1131310DF9380910523833029F40E947E090E9483
S11313203D095EC08091012390910223C091FA236C
S1131330D091FB23C81BD90B71F520910323309165
S11313400423820F931F80930323909304232091FB
S1131350F6233091F7238217930721F080911C2202
S1131360882341F084E080930523E4E1F3E202E082
S1131370069336C0E091FE23F091FF23309799F055
S11313801995882381F01092012310920223C091B1
S1131390FA23D091FB23C034D10528F010921C22EB
S11313A0C0E4D0E003C081E080931C22E8E0F3E2D3
S11313B0C68BD78B80910123909102232091F8232F
S11313C03091F923280F391F208F318FC80FD91F6F
S11313D0C0930123D0930223ECE1F3E202E00693ED
S11313E0DF91CF910F910895FC018181E82FE7707F
S11313F08E2F90E0FC013197E730F105D8F488276F
S1131400E250FF4F8F4F0C947A2280E190E00895D0
S113141080E290E0089580E490E0089580E890E010
S1131420089580E091E0089580E092E008958FEFC0
S113143093E0089588E090E00895282F2F7030E01D
S1131440220F331F082E000C990B8827990F881F31
S11314509927820F931F02979C01220F331F220F9B
S1131460331F220F331F820F931F83569D4D089500
S11314700F93CF938091CC0480FF6AC081E0809366
S1131480CC04E4E1F3E200E80693ECE1F3E200E8E3
S113149006938093CA04E4E1F3E200E106938091A9
S11314A00523882339F08350823010F40E947E098A
S11314B00E943D098091162390911723089709F003
S11314C049C088E0E1ECF2E2A0EFB3E201900D92B2
S11314D08A95E1F7E8ECF4E0808180628083808182
S11314E0806280830E946D06C82F811104C00E940F
S11314F06209C1E030C08091F023882374F4109213
S1131500032310920423109201231092022382E0F9
S1131510809305230E9486091EC08091F623909132
S1131520F723892B19F40E94700915C01092032324
S113153010920423109201231092022381E08093DD
S11315400523E4E1F3E202E0069300E2069303C01C
S1131550C0E001C0C1E08C2FCF910F9108958F920C
S11315609F92AF92BF92DF92EF92FF920F931F93DD
S1131570CF93DF93D82E0E941D0A8C01CD2DCF70FE
S1131580D0E0CE01880F991FCD2D0D2C000CDD0B62
S1131590CC27DD0FCC1FDD27C80FD91FCE01880F44
S11315A0991F880F991F880F991F9C012C5E3C4D31
S11315B07901C9010E94F4094C01DD200CF07BC0C3
S11315C0FE01EE0FFF1FEE0FFF1FEE0FFF1FE85F80
S11315D0FC4D22893389D80115968D919C911697DB
S11315E0820F931F15968D939C93169713962D91A6
S11315F03C9114978217930709F447C0281B390BB1
S11316002115B4E03B0740F02FEF33E0C901B401EA
S11316100E944422281B390BF801808181FF0AC0F3
S1131620C901B4010E94442241E0892B09F040E041
S1131630842F01C080E0D8019C9180FB91F99C9398
S1131640FE01EE0FFF1FEE0FFF1FEE0FFF1FE85FFF
S1131650FC4D128A138A2687378711962D913C9167
S1131660129715968D919C911697820F931FCC0F0C
S1131670DD1FCC0FDD1FCC0FDD1FC85EDC4D888362
S11316809983F70102E00693E4C0D8018C9181FFAD
S1131690CDC08D7F8C93CC0FDD1FCC0FDD1FCC0F05
S11316A0DD1FC85FDC4D1A8A1B8A1E861F86F70160
S11316B002E00693CEC0FE01EE0FFF1FEE0FFF1FE8
S11316C0EE0FFF1FE85FFC4DA684B784D8018C9110
S11316D082FF1BC01196ED91FC91129715962D91E6
S11316E03C91169713968D919C911497B4010E9486
S11316F04422B0E4DB9EB001112463527E4DAC0160
S1131700CF01820F931F0E94D023F80125813681D7
S11317102A0D3B1D25833683838194818217930789
S113172068F485839683CC0FDD1FCC0FDD1FCC0FAF
S1131730DD1FC85FDC4D8A899B8978C0FE01EE0FEE
S1131740FF1FEE0FFF1FEE0FFF1FE85FFC4D4289E6
S11317505389A416B50609F069C02817390709F496
S113176065C0AC01421B530B9A01211554E03507A7
S113177048F02FEF33E0C901B4010E944422281B32
S1131780390B06C0C901B4010E944422281B390B3D
S1131790FE01EE0FFF1FEE0FFF1FEE0FFF1FE85FAE
S11317A0FC4D168617862815390500F5D8018C914D
S11317B084608C93B0E4DB9EC001112483529E4D5F
S11317C0FE01EE0FFF1FEE0FFF1FEE0FFF1FE85E7F
S11317D0FC4D80839183CC0FDD1FCC0FDD1FCC0F1C
S11317E0DD1FC85FDC4D8A8A9B8A1CC0F8014181D9
S11317F0528185819681840F951FFE01EE0FFF1F94
S1131800EE0FFF1FEE0FFF1FE85EFC4D80839183F8
S1131810CC0FDD1FCC0FDD1FCC0FDD1FC85FDC4DEF
S11318202A8B3B8BF70102E0069313C0D8018C91FD
S113183080FF0FC08E7F8C931796ED91FC911897C3
S1131840309739F015966D917C9116974D2D80E067
S11318501995DF91CF911F910F91FF90EF90DF9039
S1131860BF90AF909F908F9008951F93CF93DF9375
S11318701F92CDB7DEB78FB78983F894198181E0C1
S11318800E940509EAECF4E080E4808380E280832E
S1131890E1ECF4E0808181608083A9ECB4E08C9178
S11318A082608C93E8ECF4E08081806480838C9186
S11318B081608C938081806880831FBF0F90DF914B
S11318C0CF911F9108950F931F93CF93DF931F928E
S11318D01F92CDB7DEB700E610E0F801108280E376
S11318E00E945A1FE0ECF4E080818064808381E0F0
S11318F0F80180838FB78A83F8941A81E8E0F3E2D1
S11319001586158A158E15A215A615AAEDE9F2E21B
S113191080818E7F8083E6EAF2E280818E7F8083FD
S1131920EFEAF2E280818E7F8083E8EBF2E280814D
S11319308E7F80836AE170E082E00E94DE1F8F3F29
S113194019F08093FA0403C08FE18093FA046BE1E9
S113195070E082E00E94DE1F8F3F19F08093FB0449
S113196003C08FE18093FB04E0ECF4E080818260AB
S1131970808380818068808380818061808384E12A
S113198093E2868397838081806280838FEF809344
S1131990C504E8ECF4E080818160808310924823E0
S11319A0809109248F3F09F4FFCF8FB78983F8947E
S11319B09981E4E0F4E285818F5F85839FBF0E9473
S11319C0350C1FBF0F900F90DF91CF911F910F9196
S11319D0089580E008958093C30408958091C3041A
S11319E008958091442390914523089580E090E0E8
S11319F00895E0EFF3E28087918762877387089503
S1131A00282F2F7030E0220F331F082E000C990B63
S1131A108827990F881F9927820F931FFC01EE0FC7
S1131A20FF1FEE0FFF1FEE0FFF1FE85FFC4D258524
S1131A30207C09F069C06370613011F018F404C0AF
S1131A4060EC03C060E801C060E440385105E9F08F
S1131A5050F440325105A9F040345105A1F0403111
S1131A605105D9F40CC0411522E0520791F04F3FC3
S1131A7023E0520781F04115514079F408C021E078
S1131A800DC022E00BC023E009C024E007C025E01C
S1131A9005C026E003C027E001C020E0FC01EE0FF2
S1131AA0FF1FEE0FFF1FEE0FFF1FE85FFC4D1586B3
S1131AB036E03487262B2587FC01EE0FFF1FEE0F3F
S1131AC0FF1FEE0FFF1FE85FFC4D2585207C203CA7
S1131AD069F4FC01EE0FFF1FEE0FFF1FEE0FFF1F57
S1131AE0E85FFC4D25852770273081F0880F991F0A
S1131AF0880F991F880F991FFC01E85FFC4D8585AD
S1131B008062858781E0089580E0089581E00895EA
S1131B10E82FEF70F0E0EE0FFF1F082E000C990B7A
S1131B208827990F881F9927E80FF91FEE0FFF1FC9
S1131B30EE0FFF1FEE0FFF1FE85FFC4D858582FB54
S1131B40882780F908950F93282F2F7030E0A9017A
S1131B50440F551F282F082E000C330B2227330F58
S1131B60221F3327240F351FA901440F551F440F8B
S1131B70551F440F551FFA01EC5EFC4D01E006931E
S1131B80FA01E85FFC4D958592FF12C0FA01E85F07
S1131B90FC4D95859B7F95870E941D0AFC018081E1
S1131BA080FF06C08E7F80830780F085E02D199525
S1131BB081E00F9108956F927F928F929F92AF92DE
S1131BC0BF92CF92DF92EF92FF920F931F93CF9326
S1131BD0DF931F92CDB7DEB7782E662E4A015901E6
S1131BE00E941D0A6C01272D872D8F70E82EF12C81
S1131BF0C701880F991FE72C072C000CFF08EE245F
S1131C00FF0CEE1CFF24E80EF91EF701EE0FFF1F78
S1131C10EE0FFF1FEE0FFF1FE85FFC4D8585807CF4
S1131C2009F484C0F701EE0FFF1FEE0FFF1FEE0F44
S1131C30FF1FE85FFC4D8585807C803C61F0F701E7
S1131C40EE0FFF1FEE0FFF1FEE0FFF1FE85FFC4DAF
S1131C50858582FD6DC08FB78983F8948981F601EB
S1131C60908190FF03C08FBF80E063C0F601908134
S1131C70916090838FBF81829282A382B482158205
S1131C80168207831087611006C091E0A114B10485
S1131C9019F090E001C091E0F601808190FB81F998
S1131CA08B7F8083222364F4F701EE0FFF1FEE0F76
S1131CB0FF1FEE0FFF1FE85FFC4D128A138A31C02D
S1131CC0F701EE0FFF1FEE0FFF1FEE0FFF1FE85F80
S1131CD0FC4D8585807C803CB9F4C701880F991F31
S1131CE0880F991F880F991F8C5E9C4D0E94F409E0
S1131CF0BC01C5010E944422892B31F0F601808188
S1131D008E7F808380E015C0F701EE0FFF1FEE0F7A
S1131D10FF1FEE0FFF1FE85FFC4D16861786128A21
S1131D20138A872D0E94AF0A81E003C080E001C0BE
S1131D3080E00F90DF91CF911F910F91FF90EF9072
S1131D40DF90CF90BF90AF909F908F907F906F90D7
S1131D500895FF920F931F93CF93DF93182FC82FEB
S1131D60CF70D0E0CE01880F991FC12F012E000C37
S1131D70DD0BCC27DD0FCC1FDD27C80FD91F812F2A
S1131D800E941D0ADC01FE01EE0FFF1FEE0FFF1F74
S1131D90EE0FFF1FEC5EFC4D02E005938C9180FF7B
S1131DA022C08E7F8C931796ED91FC9118973097F3
S1131DB0D1F011235CF4CC0FDD1FCC0FDD1FCC0F51
S1131DC0DD1FC85FDC4D6A897B890AC0CC0FDD1F2B
S1131DD0CC0FDD1FCC0FDD1FC85FDC4D6E857F850A
S1131DE0412F81E01995DF91CF911F910F91FF90C1
S1131DF00895CF93C82F0E94A90EEC2FEF70F0E046
S1131E00EE0FFF1F8C2FCC0F990B8827990F881F7B
S1131E109927E80FF91FEE0FFF1FEE0FFF1FEE0FBC
S1131E20FF1FE85FFC4D1586CF910895E82FEF70F2
S1131E30F0E0EE0FFF1F282F082E000C330B222793
S1131E40330F221F3327E20FF31FEE0FFF1FEE0F96
S1131E50FF1FEE0FFF1FE85FFC4D9585946095878B
S1131E600E94A90E81E008951F920F920FB60F925F
S1131E7011240BB60F920F932F933F934F935F93BD
S1131E806F937F938F939F93AF93BF93EF93FF933E
S1131E908091CB04882334F480E88093CA040E94A0
S1131EA03D0690C08091CB0482FF22C084E08093E1
S1131EB0CA0480911C2386FF85C08091CC0481FDD7
S1131EC081C00E94380A81117DC080910523813030
S1131ED019F40E94700976C0843009F073C0EDE1F2
S1131EE0F3E204E00593E5E1F3E204E005936AC05C
S1131EF08091CB0481FF61C082E08093CA04809109
S1131F00142386FF5FC08091CC0481FD5BC00E94D6
S1131F10380A811157C080910523823041F484E04E
S1131F2080930523E4E1F3E202E006934BC083309F
S1131F3009F048C0EDE1F3E204E00593E5E1F3E2E2
S1131F4004E005933FC080E18093CA0481E00E94CD
S1131F50A90E81E80E94A90E82E00E94A90E82E8DF
S1131F600E94A90E0E9415061092C304E8E0F3E251
S1131F70158696E0948783E48587158A948B858BF0
S1131F8081EC92E2808B918B0E943D091BC0809171
S1131F90CB0486FF07C080E48093CA0480E00E94DB
S1131FA0050910C08091CB0485FF0CC080E28093AA
S1131FB0CA0481E00E94050905C08091CB0484FD18
S1131FC0C2CFE5CFFF91EF91BF91AF919F918F91D8
S1131FD07F916F915F914F913F912F910F910F904E
S1131FE00BBE0F900FBE0F901F9018951F920F926B
S1131FF00FB60F9211240BB60F920F931F932F93CA
S11320003F934F935F936F937F938F939F93AF937C
S1132010BF93CF93DF93EF93FF938091CC0481FD23
S113202004C00E94380A8111CCC082E08093CC04A1
S11320308091C5048195880FE4E1F3E2E81BF1097E
S11320402081318124513342369527953695279541
S113205036952795822F869520FD02C090E001C019
S113206090E8890FE82FEF70F0E0EE0FFF1F282FA4
S1132070082E000C330B2227330F221F3327E20FC5
S1132080F31FDF01AA0FBB1FAA0FBB1FAA0FBB1FA1
S1132090A85FBC4D1C969C9195FF93C0EE0FFF1F4B
S11320A0EE0FFF1FEE0FFF1FEC5EFC4D00E20693E8
S11320B0811180C080910523843029F40E947E0917
S11320C00E943D097EC00091162310911723809130
S11320D0FA239091FB23C0910123D091022398010C
S11320E02C0F3D1F8217930718F48C010C1B1D0B3A
S11320F08091F8239091F923A80161EC72E28C0F8E
S11321009D1F0E94D023C00FD11FC0930123D093E1
S113211002230034110569F4809103239091042370
S11321208C0F9D1F2091F6233091F723821793077C
S113213090F0E0EFF3E2C287D3870684F785E02DC1
S1132140309731F01995811103C00E94620939C09A
S11321500E94700936C08091FA239091FB23C8171E
S1132160D90709F5E091FE23F091FF23309719F484
S11321700E94620926C01995811103C00E94620958
S113218020C0209103233091042380910123909156
S11321900223820F931F80930323909304231092AE
S11321A0012310920223E4E1F3E202E0069300E249
S11321B0069307C0803819F40E94860902C00E9461
S11321C0AF0AFF91EF91DF91CF91BF91AF919F91B2
S11321D08F917F916F915F914F913F912F911F91BB
S11321E00F910F900BBE0F900FBE0F901F9018957C
S11321F0FC01942F41E050E0062E02C0440F551F0D
S11322000A94E2F7409523812423492F50E002C029
S1132210440F551F6A95E2F7422B43830895FC014E
S1132220942F41E050E0062E02C0440F551F0A943B
S1132230E2F7409525812423492F50E002C0440F42
S1132240551F6A95E2F7422B45830895EF92FF925A
S11322500F931F93CF93DF9300D01F92CDB7DEB7B8
S1132260FC0193818281981304C0258184812817FD
S1132270D9F18F012581892F90E0922B8B839C8348
S1132280E080F180C7010E94B111D7018D919C912A
S1132290DC01ED91FC910480F581E02D6C811995B0
S11322A0F70180819181DC01ED91FC910480F5813D
S11322B0E02D6B8119958A83F70180819181DC017E
S11322C0ED91FC910680F781E02D19958983C70172
S11322D00E94B711F8018381828385818483898177
S11322E09A819695879586832496CDBFDEBFDF912C
S11322F0CF911F910F91FF90EF9008950F931F932B
S1132300CF938C01CB01D8016D937C930E94AD11C6
S1132310DC01ED91FC910190F081E02D20E834E89E
S11323204EE150E064E019958FEFF80184838283D5
S1132330C0E040E06C2FC8010E94F81040E06C2F10
S1132340C8010E940F11CF5FC83099F7C8010E94DD
S11323502611CF911F910F910895FC0180819181E5
S11323600895FC01828193810E94B1160895FC01B5
S1132370828193810E94A91608950F931F93CF938E
S1132380DF93EC018A01688379834A835B83CA0102
S11323900E94A11660E0C8010E949A16CE010E9414
S11323A0B711DF91CF911F910F910895DC0112961F
S11323B0ED91FC91139763831296ED91FC91139721
S11323C082818823ECF783810895DC0116968C9131
S11323D01697811107C01296ED91FC911397928183
S11323E09923ECF71296ED91FC911397638312965F
S11323F0ED91FC911397838116961C920895FC012C
S11324008681811109C081E086830280F381E02DF9
S113241082818823ECF72381822F08958F929F92E3
S1132420AF92BF92EF92FF921F93CF93DF931F92CD
S1132430CDB7DEB77C01162F49015A01DC01129693
S11324408D919C911397009709F41DC1803C9105CF
S113245029F460E180E00E942F1F15C18115B4E0CA
S11324609B0729F464E080E00E942F1F0CC1803890
S1132470E1E09E0729F462E080E00E942F1F03C17F
S11324808115F1E09F0729F461E080E00E942F1F8D
S1132490FAC0803823E0920729F461E081E00E94C9
S11324A02F1FF1C08039A3E09A0729F461E082E08C
S11324B00E942F1FE8C08115B2E09B0729F462E057
S11324C081E00E942F1FDFC08034E2E09E0729F4E0
S11324D062E082E00E942F1FD6C08032F3E09F07A3
S11324E029F464E082E00E942F1FCDC0811528E00A
S11324F0920729F461E083E00E942F1FC4C0811574
S1132500A9E09A0729F461E084E00E942F1FBBC070
S11325108115BAE09B0729F461E085E00E942F1F32
S1132520B2C08115EBE09E0729F461E086E00E94C9
S11325302F1FA9C08034F8E09F0729F462E083E0EC
S11325400E942F1FA0C0803429E0920729F462E082
S113255084E00E942F1F97C08034AAE09A0729F4D0
S113256062E085E00E942F1F8EC08039B8E09B078F
S113257029F464E083E00E942F1F85C08039E9E0DC
S11325809E0729F464E084E00E942F1F7CC08039F8
S1132590FAE09F0729F464E085E00E942F1F73C0CE
S11325A080392BE0920729F464E086E00E942F1F13
S11325B06AC0803CA8E09A0729F468E083E00E949E
S11325C02F1F61C0803CB9E09B0729F468E084E0D8
S11325D00E942F1F58C0803CEAE09E0729F468E05F
S11325E085E00E942F1F4FC0803AF8E09F0729F42E
S11325F060E183E00E942F1F46C0803A29E09207E1
S113260029F460E184E00E942F1F3DC0803AAAE0D3
S11326109A0729F460E185E00E942F1F34C0803AB4
S1132620BBE09B0729F460E186E00E942F1F2BC0CA
S1132630803BE8E09E0729F460E283E00E942F1FBC
S113264022C0803BF9E09F0729F460E284E00E9405
S11326502F1F19C0803B2AE0920729F460E285E02D
S11326600E942F1F10C08038A4E09A0729F460E468
S113267083E00E942F1F07C0803A944021F460E455
S113268085E00E942F1FD7011496ED91FC911597B8
S113269080EB818360E87BE082EB93E0A501940109
S11326A00E94582249015A01672B682B692B29F093
S11326B0BFEF8B1A9B0AAB0ABB0AE3E08E169104A8
S11326C0A104B104A8F1F5E08F169104A104B104AA
S11326D0D8F129E082169104A104B10458F181E1F2
S11326E088169104A104B10488F1A1E28A16910428
S11326F0A104B10408F1B1E48B169104A104B1045E
S113270038F193E026C08064892B1061182B108364
S1132710D7011296ED91FC91139711821296ED91C7
S1132720FC91139782818823DCF48381898318C008
S113273090E003C091E001C092E0D7011296ED91C0
S1132740FC91139780E8DFCF90E003C091E001C0D3
S113275092E0D7011296ED91FC91139780E0D3CFCC
S11327600F90DF91CF911F91FF90EF90BF90AF90AA
S11327709F908F900895FC0186ED90E28083918371
S1132780628373834483558381E0868308950E9422
S1132790AF220895BF92CF92DF92EF92FF920F93F0
S11327A01F93CF93DF93CDB7DEB72B97CDBFDEBF9B
S11327B06C017B01142FB22E82EE90E2F60180832D
S11327C091836115710509F41DC1603C710529F4FB
S11327D060E180E00E942F1F15C1611524E072079B
S11327E029F464E080E00E942F1F0CC1603881E06E
S11327F0780729F462E080E00E942F1F03C161156D
S1132800E1E07E0729F461E080E00E942F1FFAC016
S11328106038F3E07F0729F461E081E00E942F1F14
S1132820F1C0603923E0720729F461E082E00E947C
S11328302F1FE8C0611582E0780729F462E081E087
S11328400E942F1FDFC06034E2E07E0729F462E0BB
S113285082E00E942F1FD6C06032F3E07F0729F484
S113286064E082E00E942F1FCDC0611528E072074A
S113287029F461E083E00E942F1FC4C0611589E040
S1132880780729F461E084E00E942F1FBBC0611522
S1132890EAE07E0729F461E085E00E942F1FB2C0C0
S11328A06115FBE07F0729F461E086E00E942F1F99
S11328B0A9C0603428E0720729F462E083E00E9432
S11328C02F1FA0C0603489E0780729F462E084E017
S11328D00E942F1F97C06034EAE07E0729F462E06B
S11328E085E00E942F1F8EC06039F8E07F0729F42D
S11328F064E083E00E942F1F85C0603929E07207DD
S113290029F464E084E00E942F1F7CC060398AE0CF
S1132910780729F464E085E00E942F1F73C06039B2
S1132920EBE07E0729F464E086E00E942F1F6AC072
S1132930603CF8E07F0729F468E083E00E942F1FE1
S113294061C0603C29E0720729F468E084E00E94D9
S11329502F1F58C0603C8AE0780729F468E085E0BE
S11329600E942F1F4FC0603AE8E07E0729F460E11F
S113297083E00E942F1F46C0603AF9E07F0729F4E4
S113298060E184E00E942F1F3DC0603A2AE0720794
S113299029F460E185E00E942F1F34C0603A8BE087
S11329A0780729F460E186E00E942F1F2BC0603B6A
S11329B0E8E07E0729F460E283E00E942F1F22C032
S11329C0603BF9E07F0729F460E284E00E942F1F56
S11329D019C0603B2AE0720729F460E285E00E9496
S11329E02F1F10C0603884E0780729F460E483E086
S11329F00E942F1F07C0603A744021F460E485E010
S1132A000E942F1FF601E282F3820483BE016F5FEE
S1132A107F4FC7010E94ED1DAE01485F5F4FF60175
S1132A206481828193810E94751E8A819B819F7833
S1132A309B83817E80618A831C8283E08D83103135
S1132A4040F0188680EF810F880F880F880F8987E0
S1132A5037C0FAE0BF1208C081E08887812F880F51
S1132A60880F880F89872CC023E02B1548F082E05B
S1132A708887812F880F880F880FB82AB98620C0CD
S1132A8087E08B1558F083E08887812F880F880FA3
S1132A90880F9CEF9B0D892B898712C082E0888761
S1132AA0812F90E0880F991F880F991F880F991F15
S1132AB0E8E0BE1611F027E001C025E0822B8987EB
S1132AC0BE016F5F7F4FF601828193810E94811D59
S1132AD0AE01485F5F4FF6016481828193810E9459
S1132AE0281EF601828193810E94C41B2B96CDBFC0
S1132AF0DEBFDF91CF911F910F91FF90EF90DF9098
S1132B00CF90BF900895CF93DF931F92CDB7DEB7D8
S1132B10DC0114968C9114971296ED91FC91139705
S1132B209FB79983F89429819081880F880F892B06
S1132B3080832FBF14962C9114971296ED91FC91DB
S1132B401397968192232913FCCF268314968C9194
S1132B5014971296ED91FC911397982F937021F48A
S1132B608695869592E001C090E080FF9F5FB096C5
S1132B7088E0989FE00DF11D1124848195810F90C8
S1132B80DF91CF9108958F929F92AF92BF92EF926F
S1132B90FF920F931F93CF93DF9361157105B9F0E3
S1132BA08B017C01C0E0D0E0812C912C5401C70141
S1132BB00E948315092E000CAA0BBB0B880E991ECC
S1132BC0AA1EBB1E21960C171D0789F703C0812C72
S1132BD0912C5401C501B401DF91CF911F910F9144
S1132BE0FF90EF90BF90AF909F908F9008950F93B8
S1132BF0FC01CB01642F422F202F808391836283B9
S1132C000E9445160F910895AB01FC0162818081F9
S1132C1091810E94371608950F931F93CF93DF93EA
S1132C20EC01CB01142F022F688379830E94B11F1A
S1132C30E881F98181818F7980648183E881F981D8
S1132C408281867E082B102B1283E881F981808192
S1132C508D608083E881F981108E118EE881F9817D
S1132C60128E138EDF91CF911F910F9108956111F0
S1132C7006C0DC01ED91FC91408F518F0895DC0179
S1132C80ED91FC91428F538F0895611109C0DC01CD
S1132C90ED91FC9111974187ED91FC912087089566
S1132CA0DC01ED91FC9111974387ED91FC91228712
S1132CB00895FC01608371834283483011F138F434
S1132CC04230A9F04430C1F0413099F50BC0403294
S1132CD011F118F44031D1F00895403409F140382D
S1132CE021F10895605F7F4F6383748308956F5E5D
S1132CF07F4F6383748308956E5E7F4F6383748311
S1132D0008956D5E7F4F6383748308956C5E7F4F77
S1132D106383748308956B5E7F4F63837483089524
S1132D206A5E7F4F638374830895695E7F4F638314
S1132D3074830895DC011396ED91FC9114976083DC
S1132D400895DC01ED91FC91119712968C91818389
S1132D500895DC01ED91FC91119712968C91858375
S1132D600895DC01ED91FC91119712968C91868364
S1132D700895FC016083718342830895462FFC010A
S1132D806281808191810E94F81008950F931F93AE
S1132D90CF93DF938C01C0E0D0E0D8011296ED917F
S1132DA0FC911397EC0FFD1F808191810E942611E5
S1132DB02296C031D10589F7DF91CF911F910F91F0
S1132DC008956F927F928F929F92AF92BF92CF920B
S1132DD0DF92EF92FF920F931F93CF93DF937C01C7
S1132DE0D22FB32EA42E952E862E672EDC01149698
S1132DF08C918823D9F1712CF7018581882381F185
S1132E00C0E0C72CD12C602F6170D70114968C912F
S1132E101497F6018C9FE00DF11D1124EE0FFF1F96
S1132E208D919C91E80FF91F808191810E94BE16BB
S1132E30202F312F4D2F5B2D6A2D792D882D962D26
S1132E4001E00E949322022F132FD42FB52EA62E19
S1132E50972E882E692ECF5FF7018581C81798F2C7
S1132E607394D70114968C91781630F2C7010E949E
S1132E70C616DF91CF911F910F91FF90EF90DF90D5
S1132E80CF90BF90AF909F908F907F906F90089558
S1132E90CF93DF93EC018C81E62FF0E0849FE00D6B
S1132EA0F11D1124EE0FFF1F68817981E60FF71FD2
S1132EB0622F808191810E94BE16CE010E94C616A7
S1132EC0DF91CF910895CF92DF92EF92FF920F930B
S1132ED01F93CF93DF938B01EA0183E090E00E947C
S1132EE0C7137C016C857D8544E00E94B916F80106
S1132EF0E082F18283E090E00E94C7137C016C853C
S1132F007D8545E00E94B916F801E282F38283E0F0
S1132F1090E00E94C7137C016C857D8543E00E948C
S1132F20B916F801E482F58283E090E00E94C713A9
S1132F307C016C857D8546E00E94B916F801E68225
S1132F40F78283E090E00E94C7137C016E857F8541
S1132F5044E00E94B916F801E086F18683E090E02F
S1132F600E94C7137C016E857F8541E00E94B916DB
S1132F70F801E286F38683E090E00E94C7137C01A7
S1132F806E857F8547E00E94B916F801E486F586D0
S1132F9083E090E00E94C7137C016885798543E053
S1132FA00E94B916F801E686F78683E090E00E9455
S1132FB0C7137C016881798147E00E94B916F80142
S1132FC0E08AF18A83E090E00E94C7137C016C855B
S1132FD07D8542E00E94B916F801E28AF38A83E013
S1132FE090E00E94C7137C016C857D8547E00E94B8
S1132FF0B916F801E48AF58A83E090E00E94C713C9
S11330007C016E857F8545E00E94B916F801E68A49
S1133010F78A83E090E00E94C7137C016E857F8568
S113302040E00E94B916F801E08EF18E83E090E052
S11330300E94C7137C016E857F8546E00E94B91605
S1133040F801E28EF38E83E090E00E94C7137C01C6
S11330506885798545E00E94B916F801E48EF58EFD
S113306083E090E00E94C7137C016885798542E083
S11330700E94B916F801E68EF78E83E090E00E9474
S1133080C7137C016881798141E00E94B916F80177
S1133090E0A2F1A283E090E00E94C7137C01688162
S11330A0798146E00E94B916F801E2A2F3A283E016
S11330B090E00E94C7137C016881798143E00E94FB
S11330C0B916F801E4A2F5A283E090E00E94C713C8
S11330D07C016881798142E00E94B916F801E6A278
S11330E0F7A283E090E00E94C7137C016C857D8584
S11330F041E00E94B916F801E0A6F1A683E090E051
S11331000E94C7137C016E857F8543E00E94B91637
S1133110F801E2A6F3A683E090E00E94C7137C01C5
S11331206885798540E00E94B916F801E4A6F5A601
S113313083E090E00E94C7137C016885798544E0B0
S11331400E94B916F801E6A6F7A683E090E00E9473
S1133150C7137C016881798144E00E94B916F801A3
S1133160E0AAF1AA83E090E00E94C7137C01688181
S1133170798140E00E94B916F801E2AAF3AA83E03B
S113318090E00E94C7137C016A817B8141E00E9428
S1133190B916F801E4AAF5AA83E090E00E94C713E7
S11331A07C016C857D8540E00E94B916F801E6AA91
S11331B0F7AA83E090E00E94C7137C0168857985B3
S11331C047E00E94B916F801E0AEF1AE83E090E06A
S11331D00E94C7137C016E857F8542E00E94B91668
S11331E0F801E2AEF3AE83E090E00E94C7137C01E5
S11331F06A857B8542E00E94B916F801E4AEF5AE1B
S113320083E090E00E94C7137C016885798541E0E2
S11332100E94B916F801E6AEF7AE83E090E00E9492
S1133220C7136C016A817B8146E00E94B91678015C
S1133230F0E4EF0EF11CF701C082D18283E090E04C
S11332400E94C7136C016881798145E00E94B91618
S1133250F701C282D38283E090E00E94C7136C011D
S11332606C817D8145E00E94B916F701C482D58244
S113327083E090E00E94C7136C016A817B8140E087
S11332800E94B916F701C682D78283E090E00E94BB
S1133290C7136C016E817F8147E00E94B916F70164
S11332A0C086D18683E090E00E94C7136C016885D4
S11332B0798546E00E94B916F701C286D38683E079
S11332C090E00E94C7136C016A857B8547E00E94E9
S11332D0B916F701C486D58683E090E00E94C7132F
S11332E06C016A857B8543E00E94B916F701C686A6
S11332F0D78683E090E00E94C7136C016A817B81CA
S113330043E00E94B9167801F0E5EF0EF11CF701D5
S1133310C082D18283E090E00E94C7136C016A816D
S11333207B8147E00E94B916F701C282D38283E011
S113333090E00E94C7136C016C817D8144E00E947F
S1133340B916F701C482D58283E090E00E94C713C6
S11333506C016E817F8146E00E94B916F701C68236
S1133360D78283E090E00E94C7136C016A857B8555
S113337045E00E94B916F701C086D18683E090E04B
S11333800E94C7136C016A857B8544E00E94B916CC
S1133390F701C286D38683E090E00E94C7136C01D4
S11333A06A857B8541E00E94B916F701C486D586FB
S11333B083E090E00E94C7136C016A857B8546E038
S11333C00E94B916F701C686D78683E090E00E9472
S11333D0C7136C016A817B8145E00E94B9167801AC
S11333E0F0E6EF0EF11CF701C082D18283E090E099
S11333F00E94C7136C016A817B8142E00E94B91666
S1133400F701C282D38283E090E00E94C7136C016B
S11334106C817D8141E00E94B916F701C482D58296
S113342083E090E00E94C7136C016C817D8147E0CA
S11334300E94B916F701C682D78283E090E00E9409
S1133440C7136C016C817D8142E00E94B916F701BB
S1133450C086D18683E090E00E94C7136C016E8120
S11334607F8140E00E94B916F701C286D38683E0CB
S113347090E00E94C7136C016E817F8145E00E9439
S1133480B916F701C486D58683E090E00E94C7137D
S11334906C016A857B8540E00E94B916F701C686F7
S11334A0D78683E090E00E94C7137C016A817B8108
S11334B044E00E94B91600591F4FF801E082F182DE
S11334C083E090E00E94C7137C016C817D8140E021
S11334D00E94B916F801E282F38283E090E00E9430
S11334E0C7137C016C817D8146E00E94B916F80106
S11334F0E482F58283E090E00E94C7137C016C8132
S11335007D8143E00E94B916F801E682F78283E0E8
S113351090E00E94C7137C016E817F8141E00E948C
S1133520B916F801E086F18683E090E00E94C713A3
S11335307C016E817F8144E00E94B916F801E28625
S1133540F38683E090E00E94C7137C016E817F8143
S113355042E00E94B916F801E486F58683E090E023
S11335600E94C7137C016E817F8143E00E94B916DB
S1133570F801E686F786DF91CF911F910F91FF90B6
S1133580EF90DF90CF9008950F931F93FC01648315
S113359045832083318302831383A801B9010E94E8
S11335A063171F910F910895FC01658776874787FC
S11335B0508B138614860895FC012285253011F45E
S11335C0148647C0293019F48385848742C08385D3
S11335D030E0382B2430310561F174F421303105A9
S11335E0F9F01CF4232BC9F033C022303105D9F093
S11335F023303105D9F02CC0273095E03907F9F094
S113360024F426303540C1F023C0283096E0390731
S1133610E1F028303740B1F01BC081E0848719C045
S113362082E0848716C083E0848713C084E08487A3
S113363010C085E084870DC086E084870AC087E0D7
S1133640848707C088E0848704C088E0848701C039
S113365084871286848583870895FC0162870E948B
S1133660DC1A0895FC0183850895FC0187859089FF
S11336700895CF93DF93EC019B01AFEFBFE00E946D
S1133680822228EF3AE240E050E00E945822B90139
S11336908E819F810E940416DF91CF910895CF936C
S11336A0DF93EC019B01AFEFBFE00E94822220E593
S11336B033EC40E050E00E945822B9018C819D8196
S11336C00E940416DF91CF910895EF92FF920F9319
S11336D01F93CF93DF93EC017B016A837B83488341
S11336E059832C833D830E831F83BA010E94391BA7
S11336F0B701CE010E944F1BDF91CF911F910F9113
S1133700FF90EF9008950895811522E0920769F4DF
S113371080914A2391E0980F90934A23811114C019
S113372062E081E00E942F1F08958034924061F48A
S11337308091492391E0980F90934923811104C00B
S113374062E082E00E942F1F0895811522E0920713
S113375061F480914A23815080934A23811113C0DC
S113376062E081E00E94451F08958034924059F43C
S113377080914923815080934923811104C062E0E0
S113378082E00E94451F0895EF92FF921F93CF930A
S1133790DF931F921F92CDB7DEB77C018FB7898369
S11337A0F8941981C7010E94841BF701808181600C
S11337B080831FBF809105248F3F09F4FFCF8FB70B
S11337C08A83F8949A81E4E0F4E281818F5F8183B3
S11337D09FBF0F900F90DF91CF911F91FF90EF90BB
S11337E008951F920F920FB60F9211240BB60F92E9
S11337F02F933F934F935F936F937F938F939F93F5
S1133800AF93BF93EF93FF9340912402509125020D
S1133810E0910224F091032461E080E092E01995A4
S1133820FF91EF91BF91AF919F918F917F916F9194
S11338305F914F913F912F910F900BBE0F900FBE50
S11338400F901F9018951F920F920FB60F9211248C
S11338500BB60F922F933F934F935F936F937F9386
S11338608F939F93AF93BF93EF93FF9340912C0259
S113387050912D02E0910224F091032462E080E053
S113388092E01995FF91EF91BF91AF919F918F9124
S11338907F916F915F914F913F912F910F900BBE4C
S11338A00F900FBE0F901F9018951F920F920FB696
S11338B00F9211240BB60F922F933F934F935F9364
S11338C06F937F938F939F93AF93BF93EF93FF93E4
S11338D04091340250913502E0910224F091032486
S11338E064E080E092E01995FF91EF91BF91AF9170
S11338F09F918F917F916F915F914F913F912F9104
S11339000F900BBE0F900FBE0F901F9018951F9233
S11339100F920FB60F9211240BB60F922F933F9371
S11339204F935F936F937F938F939F93AF93BF93C3
S1133930EF93FF9340913C0250913D02E0910224A9
S1133940F091032468E080E092E01995FF91EF91F3
S1133950BF91AF919F918F917F916F915F914F91A3
S11339603F912F910F900BBE0F900FBE0F901F90A1
S113397018951F920F920FB60F9211240BB60F9247
S11339802F933F934F935F936F937F938F939F9363
S1133990AF93BF93EF93FF934091640250916502FC
S11339A0E0910024F091012461E080E492E0199513
S11339B0FF91EF91BF91AF919F918F917F916F9103
S11339C05F914F913F912F910F900BBE0F900FBEBF
S11339D00F901F9018951F920F920FB60F921124FB
S11339E00BB60F922F933F934F935F936F937F93F5
S11339F08F939F93AF93BF93EF93FF9340916C0288
S1133A0050916D02E0910024F091012462E080E481
S1133A1092E01995FF91EF91BF91AF919F918F9192
S1133A207F916F915F914F913F912F910F900BBEBA
S1133A300F900FBE0F901F9018951F920F920FB604
S1133A400F9211240BB60F922F933F934F935F93D2
S1133A506F937F938F939F93AF93BF93EF93FF9352
S1133A604091740250917502E0910024F091012478
S1133A7064E080E492E01995FF91EF91BF91AF91DA
S1133A809F918F917F916F915F914F913F912F9172
S1133A900F900BBE0F900FBE0F901F9018951F92A2
S1133AA00F920FB60F9211240BB60F922F933F93E0
S1133AB04F935F936F937F938F939F93AF93BF9332
S1133AC0EF93FF9340917C0250917D02E09100249A
S1133AD0F091012468E080E492E01995FF91EF9160
S1133AE0BF91AF919F918F917F916F915F914F9112
S1133AF03F912F910F900BBE0F900FBE0F901F9010
S1133B001895BF92CF92DF92EF92FF920F931F937B
S1133B10CF93DF931F92CDB7DEB78C017B01811564
S1133B2022E0920781F461E270E082E00E94DE1FED
S1133B30C82ED12C60E270E082E00E94DE1FDC2CF3
S1133B40CC24C82A12C080349240E1F565E270E0CA
S1133B5082E00E94DE1FC82ED12C64E270E082E075
S1133B600E94DE1FDC2CCC24C82A8FB78983F894EA
S1133B70B980C8010E94841BF801808192E090837F
S1133B80C486D586F70125813681F801208F318FCF
S1133B90F7019281F8019283F7019481F8019483EB
S1133BA0F7019381F8019383F7019181F8019183DF
S1133BB08170F7019081892BF8018083C8010E94EC
S1133BC0A51BBFBE0F90DF91CF911F910F91FF9066
S1133BD0EF90DF90CF90BF900895DF92EF92FF9225
S1133BE00F931F93CF93DF931F92CDB7DEB78C0152
S1133BF07B018FB78983F894D980C8010E94841B04
S1133C00F8018081807CF7018083F801808D918D9B
S1133C10F70185839683F8018281F7018283F80195
S1133C208481F7018483F8018381F7018383F80198
S1133C308181F7018183C8010E94A51BDFBE0F901B
S1133C40DF91CF911F910F91FF90EF90DF90089536
S1133C50AF92BF92CF92DF92EF92FF920F931F9396
S1133C60CF93DF931F92CDB7DEB76C01B62E7A01E6
S1133C70862F837029F4962F9695969582E002C03C
S1133C80962F80E090FF8F5F8601005E1F4F98E0C3
S1133C90899F000D111D11248FB78983F894A98081
S1133CA0C6010E94841BF7018081F8018083F7011B
S1133CB08281F8018283F7018181F8018183B0FE5A
S1133CC004C0F7018381F8018683C6010E94A51B05
S1133CD0AFBE0F90DF91CF911F910F91FF90EF90A6
S1133CE0DF90CF90BF90AF900895AF92BF92CF92E4
S1133CF0DF92EF92FF920F931F93CF93DF931F9264
S1133D00CDB7DEB76C01B62E7A01862F837029F405
S1133D10962F9695969582E002C0962F80E090FFAC
S1133D208F5F8601005E1F4F98E0899F000D111D73
S1133D3011248FB78983F894A980C6010E94841B3B
S1133D40F8018081F7018083F8018281F701828381
S1133D50F8018181F7018183B0FE04C0F8018681F6
S1133D60F7018383C6010E94A51BAFBE0F90DF91AC
S1133D70CF911F910F91FF90EF90DF90CF90BF9064
S1133D80AF900895CF93DF93CDB7DEB72797CDBF1C
S1133D90DEBF8FEF80937000809371008093720078
S1133DA080937300809374008093750080937600F1
S1133DB06CE170E082E00E94DE1F8A836DE170E0B6
S1133DC082E00E94DE1F898389819A81019621F411
S1133DD080E493E289839A8389819A818B839C838B
S1133DE0E0E6F0E082838C8183838091510084FD3E
S1133DF00FC08FB78D83F8949D81E0E5F0E08FE1EB
S1133E0085838081806180839FBF818184FFFDCF12
S1133E1064E080E490E00E94E81F8FB78E83F894FA
S1133E209E81E0E5F0E08081846080839FBF818192
S1133E3082FFFDCF8FB78F83F8949F81E0E5F0E098
S1133E4086818E7F8683E8E6F0E0808181608083CE
S1133E509FBF2796CDBFDEBFDF91CF910895CF934B
S1133E60DF931F92CDB7DEB79FB79983F8949981FA
S1133E70E82FF0E0E059FF4F60958081682360836C
S1133E809FBF0F90DF91CF910895CF93DF931F923F
S1133E90CDB7DEB79FB79983F8949981E82FF0E006
S1133EA0E059FF4F8081682B60839FBF0F90DF91A3
S1133EB0CF910895CF93DF931F921F92CDB7DEB7B2
S1133EC0863011F060E001C068E18091510081FD0D
S1133ED02AC08FB78983F8949981E0E5F0E0808166
S1133EE0826080839FBF818181FFFDCF8FB78A83EA
S1133EF0F8949A81A0E5B0E016968C911697897F84
S1133F0016968C931697E0E6F0E080E885838BEBB9
S1133F10868316968C911697846016968C9380816E
S1133F20816080839FBF636084E490E00E94E81F07
S1133F3060E480E00E942F1F0F900F90DF91CF91DB
S1133F4008958032934061F480914B2391E0980F5F
S1133F5090934B23811104C064E082E00E942F1FE0
S1133F600895EF92FF921F93CF93DF931F921F92B6
S1133F70CDB7DEB72FB72983F89419812091052492
S1133F802F3F09F4FFCF7C018FB78A83F8949A817D
S1133F90E4E0F4E281818F5F81839FBFC7010E94C7
S1133FA0A11FF7018081816080831FBF0F900F9054
S1133FB0DF91CF911F91FF90EF9008954091CA0136
S1133FC0E62FF72F8093CA0184914093CA01089584
S1133FD01BBEFC0128ED24BF6083089508950F9350
S1133FE01F93CF93DF9388E090E00E94C713EC0106
S1133FF000915C2310915D2320915A2330915B231F
S11340004091CE205091CF206091D0207091D1204A
S11340100E94651BC0935823D0935923DF91CF91FD
S11340201F910F9108950F931F93CF93DF938AE00D
S113403090E00E94C713EC01009154231091552382
S1134040209150233091512340914E2350914F237E
S113405060915623709157230E947601C0934C239C
S1134060D0934D23DF91CF911F910F9108950F931A
S11340701F93CF93DF9386E090E00E94C713EC0177
S113408000EE13E220E633E24091CC206091CD2093
S11340900E94C41AC0935423D0935523DF91CF9127
S11340A01F910F910895CF93DF9382E090E00E94D7
S11340B0C713EC0160915423709155230E9491021F
S11340C0C0935223D0935323DF91CF910895CF937C
S11340D0DF9381E190E00E94C713EC0140915823E3
S11340E05091592360915423709155230E94D41AFE
S11340F0C0935023D0935123DF91CF9108950E9410
S113410012060E94350C0895CF92DF92EF92FF922F
S11341100F931F93CF93DF9387E090E00E94C71320
S11341208C0140E456E060EC78E00E94BB1385E02B
S113413090E00E94C7137C0140E160EA76E00E94AF
S1134140591684E090E00E94C713EC01A701B8015E
S11341500E94BD1187E090E00E94C7137C01BE015C
S11341600E947E11C0EED3E2E882F98285E090E0FD
S11341700E94C7137C0144E060E076E00E94591677
S113418084E090E00E94C7136C01A701B8010E946B
S1134190BD1187E090E00E94C7137C01B6010E9424
S11341A07E11EA82FB8285E090E00E94C7137C01C5
S11341B048E060E076E00E94591684E090E00E94B6
S11341C0C7136C01A701B8010E94BD1187E090E0FC
S11341D00E94C7137C01B6010E947E11EC82FD820D
S11341E085E090E00E94C7136C0142E060E476E051
S11341F00E94591684E090E00E94C7137C01A60136
S1134200B8010E94BD1187E090E00E94C7138C01A1
S1134210B7010E947E110E831F8387E090E00E9405
S1134220C7138C0140E856E060EC7AE00E94BB13AF
S113423085E090E00E94C7137C0140E260E676E0EE
S11342400E94591684E090E00E94C7136C01A701F4
S1134250B8010E94BD1187E090E00E94C7137C0161
S1134260B6010E947E11E886F98685E090E00E94FE
S1134270C7137C0140E160E676E00E94591684E0B1
S113428090E00E94C7136C01A701B8010E94BD1100
S113429087E090E00E94C7137C01B6010E947E1162
S11342A0EA86FB8685E090E00E94C7137C0140E12A
S11342B060E876E00E94591684E090E00E94C713FB
S11342C06C01A701B8010E94BD1187E090E00E9433
S11342D0C7137C01B6010E947E11EC86FD8685E041
S11342E090E00E94C7136C0141E060E876E00E9410
S11342F0591684E090E00E94C7137C01A601B8011E
S11343000E94BD1187E090E00E94C7138C01B701A1
S11343100E947E110E871F87DF91CF911F910F910D
S1134320FF90EF90DF90CF9008950F93CF93DF939A
S113433085E090E00E94C713EC0101E020E047E033
S113434060E072E00E94CA13C0935E23D0935F239F
S1134350DF91CF910F910895EF92FF920F93CF9336
S1134360DF9382E090E00E94C713EC0120E040E07C
S113437060E273E00E940C1683E090E00E94C71391
S11343807C010AE026E140E0BE010E94F715E092BC
S11343905A23F0925B2383E090E00E94C7137C01D0
S11343A001E020E141E0BE010E94F715E0925C23A8
S11343B0F0925D23DF91CF910F91FF90EF900895DC
S11343C061E084E00E942F1FE0E0F9E081E0808357
S11343D0148280E392EF86A397A310A211A282E035
S11343E0868308950E94EE1F87E08093A20078944C
S11343F0E4E0F4E21082118212821382148281E0DA
S113440085830E94C21E0E9484200E9437200E943D
S113441095210E94AC210E94EF1F0E9467200E94F8
S11344207F200E9453200E94E0210E94132080914B
S11344304C2390914D230E946D02F9CF1F920F924D
S11344400FB60F92112400000F900FBE0F901F9013
S11344501895CF93DF9381E090E00E94C713EC019D
S11344600E94831BC0935623D093572381E090E08E
S11344700E94C713EC010E946B01C0934E23D0939A
S11344804F23DF91CF910895AA1BBB1B51E107C0B5
S1134490AA1FBB1FA617B70710F0A61BB70B881FD0
S11344A0991F5A95A9F780959095BC01CD0108955F
S11344B0A1E21A2EAA1BBB1BFD010DC0AA1FBB1F24
S11344C0EE1FFF1FA217B307E407F50720F0A21B96
S11344D0B30BE40BF50B661F771F881F991F1A9403
S11344E069F760957095809590959B01AC01BD012D
S11344F0CF010895EE0FFF1F881F8BBF0790F69121
S1134500E02D1994A29FB001B39FC001A39F700D29
S1134510811D1124911DB29F700D811D1124911DC7
S1134520089597FB10F8169400080F93083098F03C
S11345300850232F342F452F562F672F782F892F7C
S1134540902DF4CF05949795879577956795579512
S11345504795379527950A95AAF70F9108950F93D4
S11345601F93CF93DF938230910510F482E090E0A3
S1134570E0910C24F0910D2420E030E0A0E0B0E0C4
S1134580309719F1408151810281138148175907ED
S1134590C8F08417950769F4109731F012960C93BC
S11345A0129713961C9327C000930C2410930D2488
S11345B022C02115310519F04217530718F49A0146
S11345C0BD01EF01DF01F801DBCF21153105F9F061
S11345D0281B390B2430310580F48A819B816115B5
S11345E0710521F0FB018283938304C080930C2422
S11345F090930D24FE01329644C0FE01E20FF31F96
S11346008193919322503109288339833AC02091B0
S11346100A2430910B24232B41F420910220309161
S1134620032020930A2430930B24209100203091FE
S113463001202115310541F42DB73EB740910420E6
S113464050910520241B350BE0910A24F0910B2492
S1134650E217F307A0F42E1B3F0B2817390778F055
S1134660AC014E5F5F4F2417350748F04E0F5F1FB4
S113467040930A2450930B248193919302C0E0E069
S1134680F0E0CF01DF91CF911F910F910895CF9367
S1134690DF93009709F481C0FC01329712821382E0
S11346A0A0910C24B0910D24109781F420813181C4
S11346B0820F931F20910A2430910B242817390765
S11346C051F5E0930A24F0930B2467C0ED0120E038
S11346D030E0CE17DF0740F44A815B819E0141152B
S11346E05105F1F0EA01F5CFC283D38340815181B2
S11346F0840F951FC817D90759F488819981840FAD
S1134700951F0296808391838A819B818283938300
S11347102115310529F4E0930C24F0930D243DC0B8
S1134720E901EA83FB8349915991C40FD51FEC1722
S1134730FD0761F480819181840F951F0296E90140
S113474088839983828193818A839B83E0E0F0E06C
S113475012968D919C911397009719F0FD01DC013D
S1134760F7CF8D919C9111979D012E5F3F4F820F42
S1134770931F20910A2430910B242817390769F4D8
S1134780309729F410920C2410920D2402C0128246
S11347901382A0930A24B0930B24DF91CF91089540
S11347A0FB01DC0102C001900D9241505040D8F74A
S10947B00895F894FFCF08
S11347B600000E2420006104C602D002D202EA03DD
S11347C69502C002D402D2020000000300000000D9
S11347D600000000000000000000000000000000CF
S11347E600000000000000000000000000000000BF
S11347F6000000004C4544204472697665720053FB
S1134806757065726C696768742050686F746F6E32
S11348166963730004030904BA206E20000076203D
S113482672201020062009024300020100C0050977
S11348360400000102020100052400100104240200
S1134846020524060001052401030107058203402D
S1134856001009040100020A000000070581024055
S113486600000705020240000000120100020200D7
S11348760040EB0304240001010200010808F82AA1
S11348866400000000000E12D611E511FF110000AD
S10748960000C31542
S9030000FC
